{
  "_format": "hh-sol-artifact-1",
  "contractName": "Lend",
  "sourceName": "contracts/Lend.sol",
  "abi": [
    {
      "inputs": [],
      "stateMutability": "nonpayable",
      "type": "constructor"
    },
    {
      "anonymous": false,
      "inputs": [
        {
          "indexed": true,
          "internalType": "bytes32",
          "name": "id",
          "type": "bytes32"
        }
      ],
      "name": "ChainlinkCancelled",
      "type": "event"
    },
    {
      "anonymous": false,
      "inputs": [
        {
          "indexed": true,
          "internalType": "bytes32",
          "name": "id",
          "type": "bytes32"
        }
      ],
      "name": "ChainlinkFulfilled",
      "type": "event"
    },
    {
      "anonymous": false,
      "inputs": [
        {
          "indexed": true,
          "internalType": "bytes32",
          "name": "id",
          "type": "bytes32"
        }
      ],
      "name": "ChainlinkRequested",
      "type": "event"
    },
    {
      "inputs": [
        {
          "internalType": "bytes32",
          "name": "_requestId",
          "type": "bytes32"
        },
        {
          "internalType": "enum Lend.LendStatus",
          "name": "_status",
          "type": "uint8"
        }
      ],
      "name": "_callback",
      "outputs": [],
      "stateMutability": "nonpayable",
      "type": "function"
    },
    {
      "inputs": [
        {
          "internalType": "string",
          "name": "_loanId",
          "type": "string"
        }
      ],
      "name": "approvaLoan",
      "outputs": [],
      "stateMutability": "payable",
      "type": "function"
    },
    {
      "inputs": [
        {
          "internalType": "string",
          "name": "_loanId",
          "type": "string"
        }
      ],
      "name": "closeLoan",
      "outputs": [],
      "stateMutability": "payable",
      "type": "function"
    },
    {
      "inputs": [
        {
          "components": [
            {
              "internalType": "address",
              "name": "from",
              "type": "address"
            },
            {
              "internalType": "address",
              "name": "to",
              "type": "address"
            },
            {
              "internalType": "uint256",
              "name": "amount",
              "type": "uint256"
            },
            {
              "internalType": "uint256",
              "name": "block",
              "type": "uint256"
            },
            {
              "internalType": "uint256",
              "name": "months",
              "type": "uint256"
            },
            {
              "internalType": "enum Lend.LendStatus",
              "name": "status",
              "type": "uint8"
            },
            {
              "internalType": "string",
              "name": "loanId",
              "type": "string"
            }
          ],
          "internalType": "struct Lend.Ledger",
          "name": "_loan",
          "type": "tuple"
        },
        {
          "internalType": "string",
          "name": "_metadata",
          "type": "string"
        }
      ],
      "name": "createLoan",
      "outputs": [],
      "stateMutability": "nonpayable",
      "type": "function"
    },
    {
      "inputs": [
        {
          "internalType": "string",
          "name": "_loanId",
          "type": "string"
        }
      ],
      "name": "getLoan",
      "outputs": [
        {
          "components": [
            {
              "internalType": "address",
              "name": "from",
              "type": "address"
            },
            {
              "internalType": "address",
              "name": "to",
              "type": "address"
            },
            {
              "internalType": "uint256",
              "name": "amount",
              "type": "uint256"
            },
            {
              "internalType": "uint256",
              "name": "block",
              "type": "uint256"
            },
            {
              "internalType": "uint256",
              "name": "months",
              "type": "uint256"
            },
            {
              "internalType": "enum Lend.LendStatus",
              "name": "status",
              "type": "uint8"
            },
            {
              "internalType": "string",
              "name": "loanId",
              "type": "string"
            }
          ],
          "internalType": "struct Lend.Ledger",
          "name": "_loan",
          "type": "tuple"
        }
      ],
      "stateMutability": "view",
      "type": "function"
    },
    {
      "inputs": [
        {
          "internalType": "string",
          "name": "_loanId",
          "type": "string"
        }
      ],
      "name": "receiveLoan",
      "outputs": [],
      "stateMutability": "nonpayable",
      "type": "function"
    }
  ],
  "bytecode": "0x608060405260016004553480156200001657600080fd5b506200003c73326c977e6efc84e512bb9c30f76e30c160ed06fb620000cc60201b60201c565b7358bbdbfb6fca3129b91f0dbe372098123b38b5e9600660006101000a81548173ffffffffffffffffffffffffffffffffffffffff021916908373ffffffffffffffffffffffffffffffffffffffff1602179055507f6461323061616530653463383433663639343965356362336637636665386334600781905550662386f26fc1000060088190555062000110565b80600260006101000a81548173ffffffffffffffffffffffffffffffffffffffff021916908373ffffffffffffffffffffffffffffffffffffffff16021790555050565b613a6580620001206000396000f3fe6080604052600436106100555760003560e01c8063179235dd1461005a57806342ca2c161461008357806368568790146100ac5780636f3ee117146100d5578063c47d2586146100f1578063d6bd2d391461012e575b600080fd5b34801561006657600080fd5b50610081600480360381019061007c91906127fa565b61014a565b005b34801561008f57600080fd5b506100aa60048036038101906100a591906127be565b61060b565b005b3480156100b857600080fd5b506100d360048036038101906100ce919061283b565b610b84565b005b6100ef60048036038101906100ea91906127fa565b610f6e565b005b3480156100fd57600080fd5b50610118600480360381019061011391906127fa565b611476565b604051610125919061330f565b60405180910390f35b610148600480360381019061014391906127fa565b611691565b005b600060098260405161015c9190613019565b90815260200160405180910390206040518060e00160405290816000820160009054906101000a900473ffffffffffffffffffffffffffffffffffffffff1673ffffffffffffffffffffffffffffffffffffffff1673ffffffffffffffffffffffffffffffffffffffff1681526020016001820160009054906101000a900473ffffffffffffffffffffffffffffffffffffffff1673ffffffffffffffffffffffffffffffffffffffff1673ffffffffffffffffffffffffffffffffffffffff1681526020016002820154815260200160038201548152602001600482015481526020016005820160009054906101000a900460ff16600381111561028a577f4e487b7100000000000000000000000000000000000000000000000000000000600052602160045260246000fd5b60038111156102c2577f4e487b7100000000000000000000000000000000000000000000000000000000600052602160045260246000fd5b81526020016006820180546102d69061374f565b80601f01602080910402602001604051908101604052809291908181526020018280546103029061374f565b801561034f5780601f106103245761010080835404028352916020019161034f565b820191906000526020600020905b81548152906001019060200180831161033257829003601f168201915b505050505081525050905060016003811115610394577f4e487b7100000000000000000000000000000000000000000000000000000000600052602160045260246000fd5b8160a0015160038111156103d1577f4e487b7100000000000000000000000000000000000000000000000000000000600052602160045260246000fd5b14610411576040517f08c379a0000000000000000000000000000000000000000000000000000000008152600401610408906131ef565b60405180910390fd5b3373ffffffffffffffffffffffffffffffffffffffff16816020015173ffffffffffffffffffffffffffffffffffffffff1614610483576040517f08c379a000000000000000000000000000000000000000000000000000000000815260040161047a9061320f565b60405180910390fd5b61054c82600a846040516104979190613019565b908152602001604051809103902080546104b09061374f565b80601f01602080910402602001604051908101604052809291908181526020018280546104dc9061374f565b80156105295780601f106104fe57610100808354040283529160200191610529565b820191906000526020600020905b81548152906001019060200180831161050c57829003601f168201915b50505050506040518060600160405280602f81526020016139a4602f9139611add565b60008160200151905060008173ffffffffffffffffffffffffffffffffffffffff16836040015160405161057f90613077565b60006040518083038185875af1925050503d80600081146105bc576040519150601f19603f3d011682016040523d82523d6000602084013e6105c1565b606091505b5050905080610605576040517f08c379a00000000000000000000000000000000000000000000000000000000081526004016105fc9061318f565b60405180910390fd5b50505050565b816005600082815260200190815260200160002060009054906101000a900473ffffffffffffffffffffffffffffffffffffffff1673ffffffffffffffffffffffffffffffffffffffff163373ffffffffffffffffffffffffffffffffffffffff16146106ad576040517f08c379a00000000000000000000000000000000000000000000000000000000081526004016106a49061326f565b60405180910390fd5b6005600082815260200190815260200160002060006101000a81549073ffffffffffffffffffffffffffffffffffffffff0219169055807f7cc135e0cebb02c3480ae5d74d377283180a2601f8f644edf7987b009316c63a60405160405180910390a26000600b600085815260200190815260200160002080546107309061374f565b80601f016020809104026020016040519081016040528092919081815260200182805461075c9061374f565b80156107a95780601f1061077e576101008083540402835291602001916107a9565b820191906000526020600020905b81548152906001019060200180831161078c57829003601f168201915b5050505050905060006009826040516107c29190613019565b90815260200160405180910390206040518060e00160405290816000820160009054906101000a900473ffffffffffffffffffffffffffffffffffffffff1673ffffffffffffffffffffffffffffffffffffffff1673ffffffffffffffffffffffffffffffffffffffff1681526020016001820160009054906101000a900473ffffffffffffffffffffffffffffffffffffffff1673ffffffffffffffffffffffffffffffffffffffff1673ffffffffffffffffffffffffffffffffffffffff1681526020016002820154815260200160038201548152602001600482015481526020016005820160009054906101000a900460ff1660038111156108f0577f4e487b7100000000000000000000000000000000000000000000000000000000600052602160045260246000fd5b6003811115610928577f4e487b7100000000000000000000000000000000000000000000000000000000600052602160045260246000fd5b815260200160068201805461093c9061374f565b80601f01602080910402602001604051908101604052809291908181526020018280546109689061374f565b80156109b55780601f1061098a576101008083540402835291602001916109b5565b820191906000526020600020905b81548152906001019060200180831161099857829003601f168201915b5050505050815250509050838160a0019060038111156109fe577f4e487b7100000000000000000000000000000000000000000000000000000000600052602160045260246000fd5b90816003811115610a38577f4e487b7100000000000000000000000000000000000000000000000000000000600052602160045260246000fd5b8152505080600983604051610a4d9190613019565b908152602001604051809103902060008201518160000160006101000a81548173ffffffffffffffffffffffffffffffffffffffff021916908373ffffffffffffffffffffffffffffffffffffffff16021790555060208201518160010160006101000a81548173ffffffffffffffffffffffffffffffffffffffff021916908373ffffffffffffffffffffffffffffffffffffffff16021790555060408201518160020155606082015181600301556080820151816004015560a08201518160050160006101000a81548160ff02191690836003811115610b58577f4e487b7100000000000000000000000000000000000000000000000000000000600052602160045260246000fd5b021790555060c0820151816006019080519060200190610b79929190612431565b509050505050505050565b600182604001511015610bcc576040517f08c379a0000000000000000000000000000000000000000000000000000000008152600401610bc3906132af565b60405180910390fd5b3373ffffffffffffffffffffffffffffffffffffffff16826020015173ffffffffffffffffffffffffffffffffffffffff1614610c3e576040517f08c379a0000000000000000000000000000000000000000000000000000000008152600401610c359061314f565b60405180910390fd5b60008260800151118015610c575750600c826080015111155b610c96576040517f08c379a0000000000000000000000000000000000000000000000000000000008152600401610c8d9061328f565b60405180910390fd5b4382606001818152505060008260a001906003811115610cdf577f4e487b7100000000000000000000000000000000000000000000000000000000600052602160045260246000fd5b90816003811115610d19577f4e487b7100000000000000000000000000000000000000000000000000000000600052602160045260246000fd5b815250508160098360c00151604051610d329190613019565b908152602001604051809103902060008201518160000160006101000a81548173ffffffffffffffffffffffffffffffffffffffff021916908373ffffffffffffffffffffffffffffffffffffffff16021790555060208201518160010160006101000a81548173ffffffffffffffffffffffffffffffffffffffff021916908373ffffffffffffffffffffffffffffffffffffffff16021790555060408201518160020155606082015181600301556080820151816004015560a08201518160050160006101000a81548160ff02191690836003811115610e3d577f4e487b7100000000000000000000000000000000000000000000000000000000600052602160045260246000fd5b021790555060c0820151816006019080519060200190610e5e929190612431565b5090505080600a8360c00151604051610e779190613019565b90815260200160405180910390209080519060200190610e98929190612431565b50610f6a8260c00151600a8460c00151604051610eb59190613019565b90815260200160405180910390208054610ece9061374f565b80601f0160208091040260200160405190810160405280929190818152602001828054610efa9061374f565b8015610f475780601f10610f1c57610100808354040283529160200191610f47565b820191906000526020600020905b815481529060010190602001808311610f2a57829003601f168201915b50505050506040518060600160405280602e81526020016139d3602e9139611add565b5050565b6000600982604051610f809190613019565b90815260200160405180910390206040518060e00160405290816000820160009054906101000a900473ffffffffffffffffffffffffffffffffffffffff1673ffffffffffffffffffffffffffffffffffffffff1673ffffffffffffffffffffffffffffffffffffffff1681526020016001820160009054906101000a900473ffffffffffffffffffffffffffffffffffffffff1673ffffffffffffffffffffffffffffffffffffffff1673ffffffffffffffffffffffffffffffffffffffff1681526020016002820154815260200160038201548152602001600482015481526020016005820160009054906101000a900460ff1660038111156110ae577f4e487b7100000000000000000000000000000000000000000000000000000000600052602160045260246000fd5b60038111156110e6577f4e487b7100000000000000000000000000000000000000000000000000000000600052602160045260246000fd5b81526020016006820180546110fa9061374f565b80601f01602080910402602001604051908101604052809291908181526020018280546111269061374f565b80156111735780601f1061114857610100808354040283529160200191611173565b820191906000526020600020905b81548152906001019060200180831161115657829003601f168201915b5050505050815250509050600260038111156111b8577f4e487b7100000000000000000000000000000000000000000000000000000000600052602160045260246000fd5b8160a0015160038111156111f5577f4e487b7100000000000000000000000000000000000000000000000000000000600052602160045260246000fd5b14611235576040517f08c379a000000000000000000000000000000000000000000000000000000000815260040161122c906131af565b60405180910390fd5b3373ffffffffffffffffffffffffffffffffffffffff16816020015173ffffffffffffffffffffffffffffffffffffffff16146112a7576040517f08c379a000000000000000000000000000000000000000000000000000000000815260040161129e9061322f565b60405180910390fd5b80604001513410156112ee576040517f08c379a00000000000000000000000000000000000000000000000000000000081526004016112e5906132ef565b60405180910390fd5b6113b782600a846040516113029190613019565b9081526020016040518091039020805461131b9061374f565b80601f01602080910402602001604051908101604052809291908181526020018280546113479061374f565b80156113945780601f1061136957610100808354040283529160200191611394565b820191906000526020600020905b81548152906001019060200180831161137757829003601f168201915b50505050506040518060600160405280602d8152602001613977602d9139611add565b60008160000151905060008173ffffffffffffffffffffffffffffffffffffffff1683604001516040516113ea90613077565b60006040518083038185875af1925050503d8060008114611427576040519150601f19603f3d011682016040523d82523d6000602084013e61142c565b606091505b5050905080611470576040517f08c379a00000000000000000000000000000000000000000000000000000000081526004016114679061324f565b60405180910390fd5b50505050565b61147e6124b7565b60098260405161148e9190613019565b90815260200160405180910390206040518060e00160405290816000820160009054906101000a900473ffffffffffffffffffffffffffffffffffffffff1673ffffffffffffffffffffffffffffffffffffffff1673ffffffffffffffffffffffffffffffffffffffff1681526020016001820160009054906101000a900473ffffffffffffffffffffffffffffffffffffffff1673ffffffffffffffffffffffffffffffffffffffff1673ffffffffffffffffffffffffffffffffffffffff1681526020016002820154815260200160038201548152602001600482015481526020016005820160009054906101000a900460ff1660038111156115bc577f4e487b7100000000000000000000000000000000000000000000000000000000600052602160045260246000fd5b60038111156115f4577f4e487b7100000000000000000000000000000000000000000000000000000000600052602160045260246000fd5b81526020016006820180546116089061374f565b80601f01602080910402602001604051908101604052809291908181526020018280546116349061374f565b80156116815780601f1061165657610100808354040283529160200191611681565b820191906000526020600020905b81548152906001019060200180831161166457829003601f168201915b5050505050815250509050919050565b60006009826040516116a39190613019565b90815260200160405180910390206040518060e00160405290816000820160009054906101000a900473ffffffffffffffffffffffffffffffffffffffff1673ffffffffffffffffffffffffffffffffffffffff1673ffffffffffffffffffffffffffffffffffffffff1681526020016001820160009054906101000a900473ffffffffffffffffffffffffffffffffffffffff1673ffffffffffffffffffffffffffffffffffffffff1673ffffffffffffffffffffffffffffffffffffffff1681526020016002820154815260200160038201548152602001600482015481526020016005820160009054906101000a900460ff1660038111156117d1577f4e487b7100000000000000000000000000000000000000000000000000000000600052602160045260246000fd5b6003811115611809577f4e487b7100000000000000000000000000000000000000000000000000000000600052602160045260246000fd5b815260200160068201805461181d9061374f565b80601f01602080910402602001604051908101604052809291908181526020018280546118499061374f565b80156118965780601f1061186b57610100808354040283529160200191611896565b820191906000526020600020905b81548152906001019060200180831161187957829003601f168201915b50505050508152505090503373ffffffffffffffffffffffffffffffffffffffff16816000015173ffffffffffffffffffffffffffffffffffffffff1614611913576040517f08c379a000000000000000000000000000000000000000000000000000000000815260040161190a906132cf565b60405180910390fd5b6000600381111561194d577f4e487b7100000000000000000000000000000000000000000000000000000000600052602160045260246000fd5b8160a00151600381111561198a577f4e487b7100000000000000000000000000000000000000000000000000000000600052602160045260246000fd5b146119ca576040517f08c379a00000000000000000000000000000000000000000000000000000000081526004016119c1906131cf565b60405180910390fd5b34816040015114611a10576040517f08c379a0000000000000000000000000000000000000000000000000000000008152600401611a07906132ef565b60405180910390fd5b611ad982600a84604051611a249190613019565b90815260200160405180910390208054611a3d9061374f565b80601f0160208091040260200160405190810160405280929190818152602001828054611a699061374f565b8015611ab65780601f10611a8b57610100808354040283529160200191611ab6565b820191906000526020600020905b815481529060010190602001808311611a9957829003601f168201915b50505050506040518060600160405280602f8152602001613a01602f9139611add565b5050565b6000818484604051602001611af493929190613030565b60405160208183030381529060405290506000611b1b600754306342ca2c1660e01b611c49565b9050611b676040518060400160405280600381526020017f67657400000000000000000000000000000000000000000000000000000000008152508383611c7a9092919063ffffffff16565b611be66040518060400160405280600481526020017f70617468000000000000000000000000000000000000000000000000000000008152506040518060400160405280600681526020017f737461747573000000000000000000000000000000000000000000000000000081525083611c7a9092919063ffffffff16565b6000611c17600660009054906101000a900473ffffffffffffffffffffffffffffffffffffffff1683600854611cad565b905085600b60008381526020019081526020016000209080519060200190611c40929190612431565b50505050505050565b611c51612558565b611c59612558565b611c7085858584611ccd909392919063ffffffff16565b9150509392505050565b611c91828460800151611d7d90919063ffffffff16565b611ca8818460800151611d7d90919063ffffffff16565b505050565b6000611cc48484846001634042994660e01b611da2565b90509392505050565b611cd5612558565b611ce5856080015161010061200a565b508385600001818152505082856020019073ffffffffffffffffffffffffffffffffffffffff16908173ffffffffffffffffffffffffffffffffffffffff16815250508185604001907bffffffffffffffffffffffffffffffffffffffffffffffffffffffff191690817bffffffffffffffffffffffffffffffffffffffffffffffffffffffff191681525050849050949350505050565b611d8a8260038351612074565b611d9d81836121b990919063ffffffff16565b505050565b600030600454604051602001611db9929190612fed565b604051602081830303815290604052805190602001209050600454856060018181525050856005600083815260200190815260200160002060006101000a81548173ffffffffffffffffffffffffffffffffffffffff021916908373ffffffffffffffffffffffffffffffffffffffff160217905550807fb5e6e01e79f91267dc17b4e6314d5d4d03593d2ceee0fbb452b750bd70ea5af960405160405180910390a2600082600080886000015189602001518a604001518b606001518a8d6080015160000151604051602401611e9798979695949392919061308c565b604051602081830303815290604052907bffffffffffffffffffffffffffffffffffffffffffffffffffffffff19166020820180517bffffffffffffffffffffffffffffffffffffffffffffffffffffffff83818316178352505050509050600260009054906101000a900473ffffffffffffffffffffffffffffffffffffffff1673ffffffffffffffffffffffffffffffffffffffff16634000aea08887846040518463ffffffff1660e01b8152600401611f5593929190613111565b602060405180830381600087803b158015611f6f57600080fd5b505af1158015611f83573d6000803e3d6000fd5b505050506040513d601f19601f82011682018060405250810190611fa79190612795565b611fe6576040517f08c379a0000000000000000000000000000000000000000000000000000000008152600401611fdd9061316f565b60405180910390fd5b600160046000828254611ff991906133f1565b925050819055505095945050505050565b6120126125c5565b600060208361202191906137af565b1461204d5760208261203391906137af565b602061203f9190613612565b8261204a91906133f1565b91505b81836020018181525050604051808452600081528281016020016040525082905092915050565b601781116120a15761209b8160058460ff16901b60ff1617846121db90919063ffffffff16565b506121b4565b60ff81116120e3576120c6601860058460ff16901b17846121db90919063ffffffff16565b506120dd816001856121fb9092919063ffffffff16565b506121b3565b61ffff811161212657612109601960058460ff16901b17846121db90919063ffffffff16565b50612120816002856121fb9092919063ffffffff16565b506121b2565b63ffffffff811161216b5761214e601a60058460ff16901b17846121db90919063ffffffff16565b50612165816004856121fb9092919063ffffffff16565b506121b1565b67ffffffffffffffff81116121b057612197601b60058460ff16901b17846121db90919063ffffffff16565b506121ae816008856121fb9092919063ffffffff16565b505b5b5b5b5b505050565b6121c16125c5565b6121d38384600001515184855161221d565b905092915050565b6121e36125c5565b6121f3838460000151518461230c565b905092915050565b6122036125c5565b612214848560000151518585612363565b90509392505050565b6122256125c5565b825182111561223357600080fd5b8460200151828561224491906133f1565b1115612279576122788560026122698860200151888761226491906133f1565b6123f1565b61227391906135b8565b61240d565b5b6000808651805187602083010193508088870111156122985787860182525b60208701925050505b602084106122df57805182526020826122ba91906133f1565b91506020816122c991906133f1565b90506020846122d89190613612565b93506122a1565b60006001856020036101000a03905080198251168184511681811785525050508692505050949350505050565b6123146125c5565b8360200151831061233a57612339846002866020015161233491906135b8565b61240d565b5b8351805160208583010184815381861415612356576001820183525b5050508390509392505050565b61236b6125c5565b8460200151848361237c91906133f1565b11156123a4576123a3856002868561239491906133f1565b61239e91906135b8565b61240d565b5b60006001836101006123b6919061349a565b6123c09190613612565b905085518386820101858319825116178152815185880111156123e35784870182525b505085915050949350505050565b60008183111561240357829050612407565b8190505b92915050565b600082600001519050612420838361200a565b5061242b83826121b9565b50505050565b82805461243d9061374f565b90600052602060002090601f01602090048101928261245f57600085556124a6565b82601f1061247857805160ff19168380011785556124a6565b828001600101855582156124a6579182015b828111156124a557825182559160200191906001019061248a565b5b5090506124b391906125df565b5090565b6040518060e00160405280600073ffffffffffffffffffffffffffffffffffffffff168152602001600073ffffffffffffffffffffffffffffffffffffffff1681526020016000815260200160008152602001600081526020016000600381111561254b577f4e487b7100000000000000000000000000000000000000000000000000000000600052602160045260246000fd5b8152602001606081525090565b6040518060a0016040528060008019168152602001600073ffffffffffffffffffffffffffffffffffffffff16815260200160007bffffffffffffffffffffffffffffffffffffffffffffffffffffffff19168152602001600081526020016125bf6125c5565b81525090565b604051806040016040528060608152602001600081525090565b5b808211156125f85760008160009055506001016125e0565b5090565b600061260f61260a84613362565b613331565b90508281526020810184848401111561262757600080fd5b61263284828561370d565b509392505050565b6000813590506126498161390a565b92915050565b60008151905061265e81613921565b92915050565b60008135905061267381613938565b92915050565b6000813590506126888161394f565b92915050565b600082601f83011261269f57600080fd5b81356126af8482602086016125fc565b91505092915050565b600060e082840312156126ca57600080fd5b6126d460e0613331565b905060006126e48482850161263a565b60008301525060206126f88482850161263a565b602083015250604061270c84828501612780565b604083015250606061272084828501612780565b606083015250608061273484828501612780565b60808301525060a061274884828501612679565b60a08301525060c082013567ffffffffffffffff81111561276857600080fd5b6127748482850161268e565b60c08301525092915050565b60008135905061278f8161395f565b92915050565b6000602082840312156127a757600080fd5b60006127b58482850161264f565b91505092915050565b600080604083850312156127d157600080fd5b60006127df85828601612664565b92505060206127f085828601612679565b9150509250929050565b60006020828403121561280c57600080fd5b600082013567ffffffffffffffff81111561282657600080fd5b6128328482850161268e565b91505092915050565b6000806040838503121561284e57600080fd5b600083013567ffffffffffffffff81111561286857600080fd5b612874858286016126b8565b925050602083013567ffffffffffffffff81111561289157600080fd5b61289d8582860161268e565b9150509250929050565b6128b081613646565b82525050565b6128bf81613646565b82525050565b6128ce81613664565b82525050565b6128dd8161366e565b82525050565b60006128ee82613392565b6128f881856133a8565b935061290881856020860161371c565b612911816138cb565b840191505092915050565b61292d612928826136d7565b613781565b82525050565b61293c816136fb565b82525050565b600061294d8261339d565b61295781856133c4565b935061296781856020860161371c565b612970816138cb565b840191505092915050565b60006129868261339d565b61299081856133e6565b93506129a081856020860161371c565b80840191505092915050565b60006129b96022836133d5565b91507f4c6f616e2072656365697665722073686f756c64206265206d73672073656e6460008301527f65720000000000000000000000000000000000000000000000000000000000006020830152604082019050919050565b6000612a1f6023836133d5565b91507f756e61626c6520746f207472616e73666572416e6443616c6c20746f206f726160008301527f636c6500000000000000000000000000000000000000000000000000000000006020830152604082019050919050565b6000612a856021836133d5565b91507f4661696c656420746f2073656e6420746865206c6f616e20746f206c656e646560008301527f65000000000000000000000000000000000000000000000000000000000000006020830152604082019050919050565b6000612aeb6024836133d5565b91507f4c6f616e206e6f7420696e20726563656976657220726563656976656420737460008301527f61747573000000000000000000000000000000000000000000000000000000006020830152604082019050919050565b6000612b516008836133e6565b91507f3f6c6f616e49643d0000000000000000000000000000000000000000000000006000830152600882019050919050565b6000612b91601a836133d5565b91507f4c6f616e206e6f7420696e20636f7272656374207374617475730000000000006000830152602082019050919050565b6000612bd1601e836133d5565b91507f4c6f616e206e6f7420696e2073656e6465722073656e742073746174757300006000830152602082019050919050565b6000612c116013836133d5565b91507f496e76616c6964206c6f616e206c656e646565000000000000000000000000006000830152602082019050919050565b6000612c51601e836133d5565b91507f4f6e6c79206c656e6465652063616e20636c6f736520746865206c6f616e00006000830152602082019050919050565b6000612c916008836133e6565b91507f267468726561643d0000000000000000000000000000000000000000000000006000830152600882019050919050565b6000612cd16000836133b9565b9150600082019050919050565b6000612ceb6025836133d5565b91507f4661696c656420746f20706179206261636b20746865206c6f616e20746f206c60008301527f656e6465720000000000000000000000000000000000000000000000000000006020830152604082019050919050565b6000612d516028836133d5565b91507f536f75726365206d75737420626520746865206f7261636c65206f662074686560008301527f20726571756573740000000000000000000000000000000000000000000000006020830152604082019050919050565b6000612db76029836133d5565b91507f4c6f616e2074656e7572652073686f756c64206265206265747765656e20312d60008301527f3132206d6f6e74687300000000000000000000000000000000000000000000006020830152604082019050919050565b6000612e1d601b836133d5565b91507f4c6f616e20616d6f756e742073686f756c6420626520677465203100000000006000830152602082019050919050565b6000612e5d6023836133d5565b91507f4c6f616e2063616e20626520617070726f766564206f6e6c79206279206c656e60008301527f64657200000000000000000000000000000000000000000000000000000000006020830152604082019050919050565b6000612ec36022836133d5565b91507f4c6f616e20616d6f756e742073686f756c64206d61746368206d73672076616c60008301527f75650000000000000000000000000000000000000000000000000000000000006020830152604082019050919050565b600060e083016000830151612f3460008601826128a7565b506020830151612f4760208601826128a7565b506040830151612f5a6040860182612fb8565b506060830151612f6d6060860182612fb8565b506080830151612f806080860182612fb8565b5060a0830151612f9360a0860182612933565b5060c083015184820360c0860152612fab8282612942565b9150508091505092915050565b612fc1816136cd565b82525050565b612fd0816136cd565b82525050565b612fe7612fe2826136cd565b6137a5565b82525050565b6000612ff9828561291c565b6014820191506130098284612fd6565b6020820191508190509392505050565b6000613025828461297b565b915081905092915050565b600061303c828661297b565b915061304782612b44565b9150613053828561297b565b915061305e82612c84565b915061306a828461297b565b9150819050949350505050565b600061308282612cc4565b9150819050919050565b6000610100820190506130a2600083018b6128b6565b6130af602083018a612fc7565b6130bc60408301896128c5565b6130c960608301886128b6565b6130d660808301876128d4565b6130e360a0830186612fc7565b6130f060c0830185612fc7565b81810360e083015261310281846128e3565b90509998505050505050505050565b600060608201905061312660008301866128b6565b6131336020830185612fc7565b818103604083015261314581846128e3565b9050949350505050565b60006020820190508181036000830152613168816129ac565b9050919050565b6000602082019050818103600083015261318881612a12565b9050919050565b600060208201905081810360008301526131a881612a78565b9050919050565b600060208201905081810360008301526131c881612ade565b9050919050565b600060208201905081810360008301526131e881612b84565b9050919050565b6000602082019050818103600083015261320881612bc4565b9050919050565b6000602082019050818103600083015261322881612c04565b9050919050565b6000602082019050818103600083015261324881612c44565b9050919050565b6000602082019050818103600083015261326881612cde565b9050919050565b6000602082019050818103600083015261328881612d44565b9050919050565b600060208201905081810360008301526132a881612daa565b9050919050565b600060208201905081810360008301526132c881612e10565b9050919050565b600060208201905081810360008301526132e881612e50565b9050919050565b6000602082019050818103600083015261330881612eb6565b9050919050565b600060208201905081810360008301526133298184612f1c565b905092915050565b6000604051905081810181811067ffffffffffffffff821117156133585761335761389c565b5b8060405250919050565b600067ffffffffffffffff82111561337d5761337c61389c565b5b601f19601f8301169050602081019050919050565b600081519050919050565b600081519050919050565b600082825260208201905092915050565b600081905092915050565b600082825260208201905092915050565b600082825260208201905092915050565b600081905092915050565b60006133fc826136cd565b9150613407836136cd565b9250827fffffffffffffffffffffffffffffffffffffffffffffffffffffffffffffffff0382111561343c5761343b6137e0565b5b828201905092915050565b6000808291508390505b60018511156134915780860481111561346d5761346c6137e0565b5b600185161561347c5780820291505b808102905061348a856138e9565b9450613451565b94509492505050565b60006134a5826136cd565b91506134b0836136cd565b92506134dd7fffffffffffffffffffffffffffffffffffffffffffffffffffffffffffffffff84846134e5565b905092915050565b6000826134f557600190506135b1565b8161350357600090506135b1565b8160018114613519576002811461352357613552565b60019150506135b1565b60ff841115613535576135346137e0565b5b8360020a91508482111561354c5761354b6137e0565b5b506135b1565b5060208310610133831016604e8410600b84101617156135875782820a905083811115613582576135816137e0565b5b6135b1565b6135948484846001613447565b925090508184048111156135ab576135aa6137e0565b5b81810290505b9392505050565b60006135c3826136cd565b91506135ce836136cd565b9250817fffffffffffffffffffffffffffffffffffffffffffffffffffffffffffffffff0483118215151615613607576136066137e0565b5b828202905092915050565b600061361d826136cd565b9150613628836136cd565b92508282101561363b5761363a6137e0565b5b828203905092915050565b6000613651826136ad565b9050919050565b60008115159050919050565b6000819050919050565b60007fffffffff0000000000000000000000000000000000000000000000000000000082169050919050565b60008190506136a8826138f6565b919050565b600073ffffffffffffffffffffffffffffffffffffffff82169050919050565b6000819050919050565b60006136e2826136e9565b9050919050565b60006136f4826136ad565b9050919050565b60006137068261369a565b9050919050565b82818337600083830152505050565b60005b8381101561373a57808201518184015260208101905061371f565b83811115613749576000848401525b50505050565b6000600282049050600182168061376757607f821691505b6020821081141561377b5761377a61386d565b5b50919050565b600061378c82613793565b9050919050565b600061379e826138dc565b9050919050565b6000819050919050565b60006137ba826136cd565b91506137c5836136cd565b9250826137d5576137d461380f565b5b828206905092915050565b7f4e487b7100000000000000000000000000000000000000000000000000000000600052601160045260246000fd5b7f4e487b7100000000000000000000000000000000000000000000000000000000600052601260045260246000fd5b7f4e487b7100000000000000000000000000000000000000000000000000000000600052602160045260246000fd5b7f4e487b7100000000000000000000000000000000000000000000000000000000600052602260045260246000fd5b7f4e487b7100000000000000000000000000000000000000000000000000000000600052604160045260246000fd5b6000601f19601f8301169050919050565b60008160601b9050919050565b60008160011c9050919050565b600481106139075761390661383e565b5b50565b61391381613646565b811461391e57600080fd5b50565b61392a81613658565b811461393557600080fd5b50565b61394181613664565b811461394c57600080fd5b50565b6004811061395c57600080fd5b50565b613968816136cd565b811461397357600080fd5b5056fe68747470733a2f2f636f6e6e6563742d7068692e76657263656c2e6170702f6170692f6c6f616e2f636c6f736568747470733a2f2f636f6e6e6563742d7068692e76657263656c2e6170702f6170692f6c6f616e2f7265636569766568747470733a2f2f636f6e6e6563742d7068692e76657263656c2e6170702f6170692f6c6f616e2f63726561746568747470733a2f2f636f6e6e6563742d7068692e76657263656c2e6170702f6170692f6c6f616e2f617070726f7665a26469706673582212204f7dea14e6a043ebf0d2f96230f303b56fefd60ae5df29be22639f96130c90b664736f6c63430008000033",
  "linkReferences": {},
  "deployedLinkReferences": {}
}