{
  "_format": "hh-sol-artifact-1",
  "contractName": "Lend",
  "sourceName": "contracts/Lend.sol",
  "abi": [
    {
      "inputs": [],
      "stateMutability": "nonpayable",
      "type": "constructor"
    },
    {
      "inputs": [
        {
          "internalType": "string",
          "name": "_loanId",
          "type": "string"
        }
      ],
      "name": "approvaLoan",
      "outputs": [],
      "stateMutability": "payable",
      "type": "function"
    },
    {
      "inputs": [
        {
          "internalType": "string",
          "name": "_loanId",
          "type": "string"
        }
      ],
      "name": "closeLoan",
      "outputs": [],
      "stateMutability": "payable",
      "type": "function"
    },
    {
      "inputs": [
        {
          "components": [
            {
              "internalType": "address",
              "name": "from",
              "type": "address"
            },
            {
              "internalType": "address",
              "name": "to",
              "type": "address"
            },
            {
              "internalType": "uint256",
              "name": "amount",
              "type": "uint256"
            },
            {
              "internalType": "uint256",
              "name": "block",
              "type": "uint256"
            },
            {
              "internalType": "uint256",
              "name": "months",
              "type": "uint256"
            },
            {
              "internalType": "enum Lend.LendStatus",
              "name": "status",
              "type": "uint8"
            },
            {
              "internalType": "string",
              "name": "loanId",
              "type": "string"
            }
          ],
          "internalType": "struct Lend.Ledger",
          "name": "_loan",
          "type": "tuple"
        },
        {
          "internalType": "string",
          "name": "_metadata",
          "type": "string"
        }
      ],
      "name": "createLoan",
      "outputs": [],
      "stateMutability": "nonpayable",
      "type": "function"
    },
    {
      "inputs": [
        {
          "internalType": "string",
          "name": "_loanId",
          "type": "string"
        }
      ],
      "name": "getLoan",
      "outputs": [
        {
          "components": [
            {
              "internalType": "address",
              "name": "from",
              "type": "address"
            },
            {
              "internalType": "address",
              "name": "to",
              "type": "address"
            },
            {
              "internalType": "uint256",
              "name": "amount",
              "type": "uint256"
            },
            {
              "internalType": "uint256",
              "name": "block",
              "type": "uint256"
            },
            {
              "internalType": "uint256",
              "name": "months",
              "type": "uint256"
            },
            {
              "internalType": "enum Lend.LendStatus",
              "name": "status",
              "type": "uint8"
            },
            {
              "internalType": "string",
              "name": "loanId",
              "type": "string"
            }
          ],
          "internalType": "struct Lend.Ledger",
          "name": "_loan",
          "type": "tuple"
        }
      ],
      "stateMutability": "view",
      "type": "function"
    },
    {
      "inputs": [
        {
          "internalType": "string",
          "name": "_loanId",
          "type": "string"
        }
      ],
      "name": "receiveLoan",
      "outputs": [],
      "stateMutability": "nonpayable",
      "type": "function"
    }
  ],
  "bytecode": "0x608060405234801561001057600080fd5b5061245f806100206000396000f3fe60806040526004361061004a5760003560e01c8063179235dd1461004f57806368568790146100785780636f3ee117146100a1578063c47d2586146100bd578063d6bd2d39146100fa575b600080fd5b34801561005b57600080fd5b50610076600480360381019061007191906119ee565b610116565b005b34801561008457600080fd5b5061009f600480360381019061009a9190611a2f565b6106cb565b005b6100bb60048036038101906100b691906119ee565b6109e4565b005b3480156100c957600080fd5b506100e460048036038101906100df91906119ee565b610fe0565b6040516100f1919061219e565b60405180910390f35b610114600480360381019061010f91906119ee565b6111fb565b005b600080826040516101279190611ff2565b90815260200160405180910390206040518060e00160405290816000820160009054906101000a900473ffffffffffffffffffffffffffffffffffffffff1673ffffffffffffffffffffffffffffffffffffffff1673ffffffffffffffffffffffffffffffffffffffff1681526020016001820160009054906101000a900473ffffffffffffffffffffffffffffffffffffffff1673ffffffffffffffffffffffffffffffffffffffff1673ffffffffffffffffffffffffffffffffffffffff1681526020016002820154815260200160038201548152602001600482015481526020016005820160009054906101000a900460ff166003811115610255577f4e487b7100000000000000000000000000000000000000000000000000000000600052602160045260246000fd5b600381111561028d577f4e487b7100000000000000000000000000000000000000000000000000000000600052602160045260246000fd5b81526020016006820180546102a190612307565b80601f01602080910402602001604051908101604052809291908181526020018280546102cd90612307565b801561031a5780601f106102ef5761010080835404028352916020019161031a565b820191906000526020600020905b8154815290600101906020018083116102fd57829003601f168201915b50505050508152505090506001600381111561035f577f4e487b7100000000000000000000000000000000000000000000000000000000600052602160045260246000fd5b8160a00151600381111561039c577f4e487b7100000000000000000000000000000000000000000000000000000000600052602160045260246000fd5b146103dc576040517f08c379a00000000000000000000000000000000000000000000000000000000081526004016103d39061209e565b60405180910390fd5b3373ffffffffffffffffffffffffffffffffffffffff16816020015173ffffffffffffffffffffffffffffffffffffffff161461044e576040517f08c379a0000000000000000000000000000000000000000000000000000000008152600401610445906120be565b60405180910390fd5b60028160a00190600381111561048d577f4e487b7100000000000000000000000000000000000000000000000000000000600052602160045260246000fd5b908160038111156104c7577f4e487b7100000000000000000000000000000000000000000000000000000000600052602160045260246000fd5b81525050806000836040516104dc9190611ff2565b908152602001604051809103902060008201518160000160006101000a81548173ffffffffffffffffffffffffffffffffffffffff021916908373ffffffffffffffffffffffffffffffffffffffff16021790555060208201518160010160006101000a81548173ffffffffffffffffffffffffffffffffffffffff021916908373ffffffffffffffffffffffffffffffffffffffff16021790555060408201518160020155606082015181600301556080820151816004015560a08201518160050160006101000a81548160ff021916908360038111156105e7577f4e487b7100000000000000000000000000000000000000000000000000000000600052602160045260246000fd5b021790555060c082015181600601908051906020019061060892919061173b565b5090505060008160200151905060008173ffffffffffffffffffffffffffffffffffffffff16836040015160405161063f90612009565b60006040518083038185875af1925050503d806000811461067c576040519150601f19603f3d011682016040523d82523d6000602084013e610681565b606091505b50509050806106c5576040517f08c379a00000000000000000000000000000000000000000000000000000000081526004016106bc9061203e565b60405180910390fd5b50505050565b600182604001511015610713576040517f08c379a000000000000000000000000000000000000000000000000000000000815260040161070a9061213e565b60405180910390fd5b3373ffffffffffffffffffffffffffffffffffffffff16826020015173ffffffffffffffffffffffffffffffffffffffff1614610785576040517f08c379a000000000000000000000000000000000000000000000000000000000815260040161077c9061201e565b60405180910390fd5b6000826080015111801561079e5750600c826080015111155b6107dd576040517f08c379a00000000000000000000000000000000000000000000000000000000081526004016107d49061211e565b60405180910390fd5b4382606001818152505060008260a001906003811115610826577f4e487b7100000000000000000000000000000000000000000000000000000000600052602160045260246000fd5b90816003811115610860577f4e487b7100000000000000000000000000000000000000000000000000000000600052602160045260246000fd5b815250508160008360c001516040516108799190611ff2565b908152602001604051809103902060008201518160000160006101000a81548173ffffffffffffffffffffffffffffffffffffffff021916908373ffffffffffffffffffffffffffffffffffffffff16021790555060208201518160010160006101000a81548173ffffffffffffffffffffffffffffffffffffffff021916908373ffffffffffffffffffffffffffffffffffffffff16021790555060408201518160020155606082015181600301556080820151816004015560a08201518160050160006101000a81548160ff02191690836003811115610984577f4e487b7100000000000000000000000000000000000000000000000000000000600052602160045260246000fd5b021790555060c08201518160060190805190602001906109a592919061173b565b509050508060018360c001516040516109be9190611ff2565b908152602001604051809103902090805190602001906109df92919061173b565b505050565b600080826040516109f59190611ff2565b90815260200160405180910390206040518060e00160405290816000820160009054906101000a900473ffffffffffffffffffffffffffffffffffffffff1673ffffffffffffffffffffffffffffffffffffffff1673ffffffffffffffffffffffffffffffffffffffff1681526020016001820160009054906101000a900473ffffffffffffffffffffffffffffffffffffffff1673ffffffffffffffffffffffffffffffffffffffff1673ffffffffffffffffffffffffffffffffffffffff1681526020016002820154815260200160038201548152602001600482015481526020016005820160009054906101000a900460ff166003811115610b23577f4e487b7100000000000000000000000000000000000000000000000000000000600052602160045260246000fd5b6003811115610b5b577f4e487b7100000000000000000000000000000000000000000000000000000000600052602160045260246000fd5b8152602001600682018054610b6f90612307565b80601f0160208091040260200160405190810160405280929190818152602001828054610b9b90612307565b8015610be85780601f10610bbd57610100808354040283529160200191610be8565b820191906000526020600020905b815481529060010190602001808311610bcb57829003601f168201915b505050505081525050905060026003811115610c2d577f4e487b7100000000000000000000000000000000000000000000000000000000600052602160045260246000fd5b8160a001516003811115610c6a577f4e487b7100000000000000000000000000000000000000000000000000000000600052602160045260246000fd5b14610caa576040517f08c379a0000000000000000000000000000000000000000000000000000000008152600401610ca19061205e565b60405180910390fd5b3373ffffffffffffffffffffffffffffffffffffffff16816020015173ffffffffffffffffffffffffffffffffffffffff1614610d1c576040517f08c379a0000000000000000000000000000000000000000000000000000000008152600401610d13906120de565b60405180910390fd5b8060400151341015610d63576040517f08c379a0000000000000000000000000000000000000000000000000000000008152600401610d5a9061217e565b60405180910390fd5b60038160a001906003811115610da2577f4e487b7100000000000000000000000000000000000000000000000000000000600052602160045260246000fd5b90816003811115610ddc577f4e487b7100000000000000000000000000000000000000000000000000000000600052602160045260246000fd5b8152505080600083604051610df19190611ff2565b908152602001604051809103902060008201518160000160006101000a81548173ffffffffffffffffffffffffffffffffffffffff021916908373ffffffffffffffffffffffffffffffffffffffff16021790555060208201518160010160006101000a81548173ffffffffffffffffffffffffffffffffffffffff021916908373ffffffffffffffffffffffffffffffffffffffff16021790555060408201518160020155606082015181600301556080820151816004015560a08201518160050160006101000a81548160ff02191690836003811115610efc577f4e487b7100000000000000000000000000000000000000000000000000000000600052602160045260246000fd5b021790555060c0820151816006019080519060200190610f1d92919061173b565b5090505060008160000151905060008173ffffffffffffffffffffffffffffffffffffffff168360400151604051610f5490612009565b60006040518083038185875af1925050503d8060008114610f91576040519150601f19603f3d011682016040523d82523d6000602084013e610f96565b606091505b5050905080610fda576040517f08c379a0000000000000000000000000000000000000000000000000000000008152600401610fd1906120fe565b60405180910390fd5b50505050565b610fe86117c1565b600082604051610ff89190611ff2565b90815260200160405180910390206040518060e00160405290816000820160009054906101000a900473ffffffffffffffffffffffffffffffffffffffff1673ffffffffffffffffffffffffffffffffffffffff1673ffffffffffffffffffffffffffffffffffffffff1681526020016001820160009054906101000a900473ffffffffffffffffffffffffffffffffffffffff1673ffffffffffffffffffffffffffffffffffffffff1673ffffffffffffffffffffffffffffffffffffffff1681526020016002820154815260200160038201548152602001600482015481526020016005820160009054906101000a900460ff166003811115611126577f4e487b7100000000000000000000000000000000000000000000000000000000600052602160045260246000fd5b600381111561115e577f4e487b7100000000000000000000000000000000000000000000000000000000600052602160045260246000fd5b815260200160068201805461117290612307565b80601f016020809104026020016040519081016040528092919081815260200182805461119e90612307565b80156111eb5780601f106111c0576101008083540402835291602001916111eb565b820191906000526020600020905b8154815290600101906020018083116111ce57829003601f168201915b5050505050815250509050919050565b6000808260405161120c9190611ff2565b90815260200160405180910390206040518060e00160405290816000820160009054906101000a900473ffffffffffffffffffffffffffffffffffffffff1673ffffffffffffffffffffffffffffffffffffffff1673ffffffffffffffffffffffffffffffffffffffff1681526020016001820160009054906101000a900473ffffffffffffffffffffffffffffffffffffffff1673ffffffffffffffffffffffffffffffffffffffff1673ffffffffffffffffffffffffffffffffffffffff1681526020016002820154815260200160038201548152602001600482015481526020016005820160009054906101000a900460ff16600381111561133a577f4e487b7100000000000000000000000000000000000000000000000000000000600052602160045260246000fd5b6003811115611372577f4e487b7100000000000000000000000000000000000000000000000000000000600052602160045260246000fd5b815260200160068201805461138690612307565b80601f01602080910402602001604051908101604052809291908181526020018280546113b290612307565b80156113ff5780601f106113d4576101008083540402835291602001916113ff565b820191906000526020600020905b8154815290600101906020018083116113e257829003601f168201915b50505050508152505090503373ffffffffffffffffffffffffffffffffffffffff16816000015173ffffffffffffffffffffffffffffffffffffffff161461147c576040517f08c379a00000000000000000000000000000000000000000000000000000000081526004016114739061215e565b60405180910390fd5b600060038111156114b6577f4e487b7100000000000000000000000000000000000000000000000000000000600052602160045260246000fd5b8160a0015160038111156114f3577f4e487b7100000000000000000000000000000000000000000000000000000000600052602160045260246000fd5b14611533576040517f08c379a000000000000000000000000000000000000000000000000000000000815260040161152a9061207e565b60405180910390fd5b34816040015114611579576040517f08c379a00000000000000000000000000000000000000000000000000000000081526004016115709061217e565b60405180910390fd5b60018160a0019060038111156115b8577f4e487b7100000000000000000000000000000000000000000000000000000000600052602160045260246000fd5b908160038111156115f2577f4e487b7100000000000000000000000000000000000000000000000000000000600052602160045260246000fd5b81525050806000836040516116079190611ff2565b908152602001604051809103902060008201518160000160006101000a81548173ffffffffffffffffffffffffffffffffffffffff021916908373ffffffffffffffffffffffffffffffffffffffff16021790555060208201518160010160006101000a81548173ffffffffffffffffffffffffffffffffffffffff021916908373ffffffffffffffffffffffffffffffffffffffff16021790555060408201518160020155606082015181600301556080820151816004015560a08201518160050160006101000a81548160ff02191690836003811115611712577f4e487b7100000000000000000000000000000000000000000000000000000000600052602160045260246000fd5b021790555060c082015181600601908051906020019061173392919061173b565b509050505050565b82805461174790612307565b90600052602060002090601f01602090048101928261176957600085556117b0565b82601f1061178257805160ff19168380011785556117b0565b828001600101855582156117b0579182015b828111156117af578251825591602001919060010190611794565b5b5090506117bd9190611862565b5090565b6040518060e00160405280600073ffffffffffffffffffffffffffffffffffffffff168152602001600073ffffffffffffffffffffffffffffffffffffffff16815260200160008152602001600081526020016000815260200160006003811115611855577f4e487b7100000000000000000000000000000000000000000000000000000000600052602160045260246000fd5b8152602001606081525090565b5b8082111561187b576000816000905550600101611863565b5090565b600061189261188d846121f1565b6121c0565b9050828152602081018484840111156118aa57600080fd5b6118b58482856122c5565b509392505050565b6000813590506118cc816123eb565b92915050565b6000813590506118e181612402565b92915050565b600082601f8301126118f857600080fd5b813561190884826020860161187f565b91505092915050565b600060e0828403121561192357600080fd5b61192d60e06121c0565b9050600061193d848285016118bd565b6000830152506020611951848285016118bd565b6020830152506040611965848285016119d9565b6040830152506060611979848285016119d9565b606083015250608061198d848285016119d9565b60808301525060a06119a1848285016118d2565b60a08301525060c082013567ffffffffffffffff8111156119c157600080fd5b6119cd848285016118e7565b60c08301525092915050565b6000813590506119e881612412565b92915050565b600060208284031215611a0057600080fd5b600082013567ffffffffffffffff811115611a1a57600080fd5b611a26848285016118e7565b91505092915050565b60008060408385031215611a4257600080fd5b600083013567ffffffffffffffff811115611a5c57600080fd5b611a6885828601611911565b925050602083013567ffffffffffffffff811115611a8557600080fd5b611a91858286016118e7565b9150509250929050565b611aa481612264565b82525050565b611ab3816122b3565b82525050565b6000611ac482612221565b611ace8185612237565b9350611ade8185602086016122d4565b611ae7816123c6565b840191505092915050565b6000611afd82612221565b611b078185612259565b9350611b178185602086016122d4565b80840191505092915050565b6000611b30602283612248565b91507f4c6f616e2072656365697665722073686f756c64206265206d73672073656e6460008301527f65720000000000000000000000000000000000000000000000000000000000006020830152604082019050919050565b6000611b96602183612248565b91507f4661696c656420746f2073656e6420746865206c6f616e20746f206c656e646560008301527f65000000000000000000000000000000000000000000000000000000000000006020830152604082019050919050565b6000611bfc602483612248565b91507f4c6f616e206e6f7420696e20726563656976657220726563656976656420737460008301527f61747573000000000000000000000000000000000000000000000000000000006020830152604082019050919050565b6000611c62601a83612248565b91507f4c6f616e206e6f7420696e20636f7272656374207374617475730000000000006000830152602082019050919050565b6000611ca2601e83612248565b91507f4c6f616e206e6f7420696e2073656e6465722073656e742073746174757300006000830152602082019050919050565b6000611ce2601383612248565b91507f496e76616c6964206c6f616e206c656e646565000000000000000000000000006000830152602082019050919050565b6000611d22601e83612248565b91507f4f6e6c79206c656e6465652063616e20636c6f736520746865206c6f616e00006000830152602082019050919050565b6000611d6260008361222c565b9150600082019050919050565b6000611d7c602583612248565b91507f4661696c656420746f20706179206261636b20746865206c6f616e20746f206c60008301527f656e6465720000000000000000000000000000000000000000000000000000006020830152604082019050919050565b6000611de2602983612248565b91507f4c6f616e2074656e7572652073686f756c64206265206265747765656e20312d60008301527f3132206d6f6e74687300000000000000000000000000000000000000000000006020830152604082019050919050565b6000611e48601b83612248565b91507f4c6f616e20616d6f756e742073686f756c6420626520677465203100000000006000830152602082019050919050565b6000611e88602383612248565b91507f4c6f616e2063616e20626520617070726f766564206f6e6c79206279206c656e60008301527f64657200000000000000000000000000000000000000000000000000000000006020830152604082019050919050565b6000611eee602283612248565b91507f4c6f616e20616d6f756e742073686f756c64206d61746368206d73672076616c60008301527f75650000000000000000000000000000000000000000000000000000000000006020830152604082019050919050565b600060e083016000830151611f5f6000860182611a9b565b506020830151611f726020860182611a9b565b506040830151611f856040860182611fe3565b506060830151611f986060860182611fe3565b506080830151611fab6080860182611fe3565b5060a0830151611fbe60a0860182611aaa565b5060c083015184820360c0860152611fd68282611ab9565b9150508091505092915050565b611fec816122a9565b82525050565b6000611ffe8284611af2565b915081905092915050565b600061201482611d55565b9150819050919050565b6000602082019050818103600083015261203781611b23565b9050919050565b6000602082019050818103600083015261205781611b89565b9050919050565b6000602082019050818103600083015261207781611bef565b9050919050565b6000602082019050818103600083015261209781611c55565b9050919050565b600060208201905081810360008301526120b781611c95565b9050919050565b600060208201905081810360008301526120d781611cd5565b9050919050565b600060208201905081810360008301526120f781611d15565b9050919050565b6000602082019050818103600083015261211781611d6f565b9050919050565b6000602082019050818103600083015261213781611dd5565b9050919050565b6000602082019050818103600083015261215781611e3b565b9050919050565b6000602082019050818103600083015261217781611e7b565b9050919050565b6000602082019050818103600083015261219781611ee1565b9050919050565b600060208201905081810360008301526121b88184611f47565b905092915050565b6000604051905081810181811067ffffffffffffffff821117156121e7576121e6612397565b5b8060405250919050565b600067ffffffffffffffff82111561220c5761220b612397565b5b601f19601f8301169050602081019050919050565b600081519050919050565b600081905092915050565b600082825260208201905092915050565b600082825260208201905092915050565b600081905092915050565b600061226f82612289565b9050919050565b6000819050612284826123d7565b919050565b600073ffffffffffffffffffffffffffffffffffffffff82169050919050565b6000819050919050565b60006122be82612276565b9050919050565b82818337600083830152505050565b60005b838110156122f25780820151818401526020810190506122d7565b83811115612301576000848401525b50505050565b6000600282049050600182168061231f57607f821691505b6020821081141561233357612332612368565b5b50919050565b7f4e487b7100000000000000000000000000000000000000000000000000000000600052602160045260246000fd5b7f4e487b7100000000000000000000000000000000000000000000000000000000600052602260045260246000fd5b7f4e487b7100000000000000000000000000000000000000000000000000000000600052604160045260246000fd5b6000601f19601f8301169050919050565b600481106123e8576123e7612339565b5b50565b6123f481612264565b81146123ff57600080fd5b50565b6004811061240f57600080fd5b50565b61241b816122a9565b811461242657600080fd5b5056fea26469706673582212208e44348961376ea1c2f51f7f06736809d311ad7d31a20ce465b69448b5adc90e64736f6c63430008000033",
  "linkReferences": {},
  "deployedLinkReferences": {}
}