{
  "_format": "hh-sol-artifact-1",
  "contractName": "Lend",
  "sourceName": "contracts/Lend.sol",
  "abi": [
    {
      "inputs": [],
      "stateMutability": "nonpayable",
      "type": "constructor"
    },
    {
      "anonymous": false,
      "inputs": [
        {
          "indexed": false,
          "internalType": "string",
          "name": "loanId",
          "type": "string"
        }
      ],
      "name": "ApproveLoan",
      "type": "event"
    },
    {
      "anonymous": false,
      "inputs": [
        {
          "indexed": false,
          "internalType": "string",
          "name": "loanId",
          "type": "string"
        }
      ],
      "name": "CloseLoan",
      "type": "event"
    },
    {
      "anonymous": false,
      "inputs": [
        {
          "indexed": false,
          "internalType": "string",
          "name": "loanId",
          "type": "string"
        },
        {
          "indexed": false,
          "internalType": "uint256",
          "name": "amount",
          "type": "uint256"
        },
        {
          "indexed": false,
          "internalType": "uint256",
          "name": "months",
          "type": "uint256"
        },
        {
          "indexed": false,
          "internalType": "address",
          "name": "from",
          "type": "address"
        },
        {
          "indexed": false,
          "internalType": "address",
          "name": "to",
          "type": "address"
        }
      ],
      "name": "CreateLoan",
      "type": "event"
    },
    {
      "anonymous": false,
      "inputs": [
        {
          "indexed": false,
          "internalType": "string",
          "name": "loanId",
          "type": "string"
        }
      ],
      "name": "ReceiveLoan",
      "type": "event"
    },
    {
      "inputs": [
        {
          "internalType": "string",
          "name": "_loanId",
          "type": "string"
        }
      ],
      "name": "approvaLoan",
      "outputs": [],
      "stateMutability": "payable",
      "type": "function"
    },
    {
      "inputs": [
        {
          "internalType": "string",
          "name": "_loanId",
          "type": "string"
        }
      ],
      "name": "closeLoan",
      "outputs": [],
      "stateMutability": "nonpayable",
      "type": "function"
    },
    {
      "inputs": [
        {
          "components": [
            {
              "internalType": "address",
              "name": "from",
              "type": "address"
            },
            {
              "internalType": "address",
              "name": "to",
              "type": "address"
            },
            {
              "internalType": "uint256",
              "name": "amount",
              "type": "uint256"
            },
            {
              "internalType": "uint256",
              "name": "block",
              "type": "uint256"
            },
            {
              "internalType": "uint256",
              "name": "months",
              "type": "uint256"
            },
            {
              "internalType": "enum Lend.LendStatus",
              "name": "status",
              "type": "uint8"
            },
            {
              "internalType": "string",
              "name": "loanId",
              "type": "string"
            }
          ],
          "internalType": "struct Lend.Ledger",
          "name": "_loan",
          "type": "tuple"
        }
      ],
      "name": "createLoan",
      "outputs": [],
      "stateMutability": "nonpayable",
      "type": "function"
    },
    {
      "inputs": [
        {
          "internalType": "string",
          "name": "_loanId",
          "type": "string"
        }
      ],
      "name": "getLoan",
      "outputs": [
        {
          "components": [
            {
              "internalType": "address",
              "name": "from",
              "type": "address"
            },
            {
              "internalType": "address",
              "name": "to",
              "type": "address"
            },
            {
              "internalType": "uint256",
              "name": "amount",
              "type": "uint256"
            },
            {
              "internalType": "uint256",
              "name": "block",
              "type": "uint256"
            },
            {
              "internalType": "uint256",
              "name": "months",
              "type": "uint256"
            },
            {
              "internalType": "enum Lend.LendStatus",
              "name": "status",
              "type": "uint8"
            },
            {
              "internalType": "string",
              "name": "loanId",
              "type": "string"
            }
          ],
          "internalType": "struct Lend.Ledger",
          "name": "_loan",
          "type": "tuple"
        }
      ],
      "stateMutability": "view",
      "type": "function"
    },
    {
      "inputs": [
        {
          "internalType": "string",
          "name": "_loanId",
          "type": "string"
        }
      ],
      "name": "receiveLoan",
      "outputs": [],
      "stateMutability": "nonpayable",
      "type": "function"
    }
  ],
  "bytecode": "0x608060405234801561001057600080fd5b50612426806100206000396000f3fe60806040526004361061004a5760003560e01c8063179235dd1461004f5780636f3ee11714610078578063c47d2586146100a1578063d6bd2d39146100de578063fef3ffae146100fa575b600080fd5b34801561005b57600080fd5b50610076600480360381019061007191906119b9565b610123565b005b34801561008457600080fd5b5061009f600480360381019061009a91906119b9565b61070f565b005b3480156100ad57600080fd5b506100c860048036038101906100c391906119b9565b610c40565b6040516100d59190612165565b60405180910390f35b6100f860048036038101906100f391906119b9565b610e5b565b005b34801561010657600080fd5b50610121600480360381019061011c91906119fa565b6113d2565b005b600080826040516101349190611f5d565b90815260200160405180910390206040518060e00160405290816000820160009054906101000a900473ffffffffffffffffffffffffffffffffffffffff1673ffffffffffffffffffffffffffffffffffffffff1673ffffffffffffffffffffffffffffffffffffffff1681526020016001820160009054906101000a900473ffffffffffffffffffffffffffffffffffffffff1673ffffffffffffffffffffffffffffffffffffffff1673ffffffffffffffffffffffffffffffffffffffff1681526020016002820154815260200160038201548152602001600482015481526020016005820160009054906101000a900460ff166003811115610262577f4e487b7100000000000000000000000000000000000000000000000000000000600052602160045260246000fd5b600381111561029a577f4e487b7100000000000000000000000000000000000000000000000000000000600052602160045260246000fd5b81526020016006820180546102ae906122ce565b80601f01602080910402602001604051908101604052809291908181526020018280546102da906122ce565b80156103275780601f106102fc57610100808354040283529160200191610327565b820191906000526020600020905b81548152906001019060200180831161030a57829003601f168201915b50505050508152505090506001600381111561036c577f4e487b7100000000000000000000000000000000000000000000000000000000600052602160045260246000fd5b8160a0015160038111156103a9577f4e487b7100000000000000000000000000000000000000000000000000000000600052602160045260246000fd5b146103e9576040517f08c379a00000000000000000000000000000000000000000000000000000000081526004016103e090612085565b60405180910390fd5b3373ffffffffffffffffffffffffffffffffffffffff16816020015173ffffffffffffffffffffffffffffffffffffffff161461045b576040517f08c379a0000000000000000000000000000000000000000000000000000000008152600401610452906120a5565b60405180910390fd5b60028160a00190600381111561049a577f4e487b7100000000000000000000000000000000000000000000000000000000600052602160045260246000fd5b908160038111156104d4577f4e487b7100000000000000000000000000000000000000000000000000000000600052602160045260246000fd5b81525050806000836040516104e99190611f5d565b908152602001604051809103902060008201518160000160006101000a81548173ffffffffffffffffffffffffffffffffffffffff021916908373ffffffffffffffffffffffffffffffffffffffff16021790555060208201518160010160006101000a81548173ffffffffffffffffffffffffffffffffffffffff021916908373ffffffffffffffffffffffffffffffffffffffff16021790555060408201518160020155606082015181600301556080820151816004015560a08201518160050160006101000a81548160ff021916908360038111156105f4577f4e487b7100000000000000000000000000000000000000000000000000000000600052602160045260246000fd5b021790555060c0820151816006019080519060200190610615929190611706565b509050507fa9c2cf2dc3091963487668f3c0d8f29b8981f205dbc6afb7c056496fc419e9d0826040516106489190611f89565b60405180910390a160008160200151905060008173ffffffffffffffffffffffffffffffffffffffff16836040015160405161068390611f74565b60006040518083038185875af1925050503d80600081146106c0576040519150601f19603f3d011682016040523d82523d6000602084013e6106c5565b606091505b5050905080610709576040517f08c379a0000000000000000000000000000000000000000000000000000000008152600401610700906120c5565b60405180910390fd5b50505050565b600080826040516107209190611f5d565b90815260200160405180910390206040518060e00160405290816000820160009054906101000a900473ffffffffffffffffffffffffffffffffffffffff1673ffffffffffffffffffffffffffffffffffffffff1673ffffffffffffffffffffffffffffffffffffffff1681526020016001820160009054906101000a900473ffffffffffffffffffffffffffffffffffffffff1673ffffffffffffffffffffffffffffffffffffffff1673ffffffffffffffffffffffffffffffffffffffff1681526020016002820154815260200160038201548152602001600482015481526020016005820160009054906101000a900460ff16600381111561084e577f4e487b7100000000000000000000000000000000000000000000000000000000600052602160045260246000fd5b6003811115610886577f4e487b7100000000000000000000000000000000000000000000000000000000600052602160045260246000fd5b815260200160068201805461089a906122ce565b80601f01602080910402602001604051908101604052809291908181526020018280546108c6906122ce565b80156109135780601f106108e857610100808354040283529160200191610913565b820191906000526020600020905b8154815290600101906020018083116108f657829003601f168201915b505050505081525050905060026003811115610958577f4e487b7100000000000000000000000000000000000000000000000000000000600052602160045260246000fd5b8160a001516003811115610995577f4e487b7100000000000000000000000000000000000000000000000000000000600052602160045260246000fd5b146109d5576040517f08c379a00000000000000000000000000000000000000000000000000000000081526004016109cc90612045565b60405180910390fd5b3373ffffffffffffffffffffffffffffffffffffffff16816000015173ffffffffffffffffffffffffffffffffffffffff1614610a47576040517f08c379a0000000000000000000000000000000000000000000000000000000008152600401610a3e90612025565b60405180910390fd5b60038160a001906003811115610a86577f4e487b7100000000000000000000000000000000000000000000000000000000600052602160045260246000fd5b90816003811115610ac0577f4e487b7100000000000000000000000000000000000000000000000000000000600052602160045260246000fd5b8152505080600083604051610ad59190611f5d565b908152602001604051809103902060008201518160000160006101000a81548173ffffffffffffffffffffffffffffffffffffffff021916908373ffffffffffffffffffffffffffffffffffffffff16021790555060208201518160010160006101000a81548173ffffffffffffffffffffffffffffffffffffffff021916908373ffffffffffffffffffffffffffffffffffffffff16021790555060408201518160020155606082015181600301556080820151816004015560a08201518160050160006101000a81548160ff02191690836003811115610be0577f4e487b7100000000000000000000000000000000000000000000000000000000600052602160045260246000fd5b021790555060c0820151816006019080519060200190610c01929190611706565b509050507fe12600dea728565f108f43447c08d6efd152742924ab09d4fe42d935ff28209c82604051610c349190611f89565b60405180910390a15050565b610c4861178c565b600082604051610c589190611f5d565b90815260200160405180910390206040518060e00160405290816000820160009054906101000a900473ffffffffffffffffffffffffffffffffffffffff1673ffffffffffffffffffffffffffffffffffffffff1673ffffffffffffffffffffffffffffffffffffffff1681526020016001820160009054906101000a900473ffffffffffffffffffffffffffffffffffffffff1673ffffffffffffffffffffffffffffffffffffffff1673ffffffffffffffffffffffffffffffffffffffff1681526020016002820154815260200160038201548152602001600482015481526020016005820160009054906101000a900460ff166003811115610d86577f4e487b7100000000000000000000000000000000000000000000000000000000600052602160045260246000fd5b6003811115610dbe577f4e487b7100000000000000000000000000000000000000000000000000000000600052602160045260246000fd5b8152602001600682018054610dd2906122ce565b80601f0160208091040260200160405190810160405280929190818152602001828054610dfe906122ce565b8015610e4b5780601f10610e2057610100808354040283529160200191610e4b565b820191906000526020600020905b815481529060010190602001808311610e2e57829003601f168201915b5050505050815250509050919050565b60008082604051610e6c9190611f5d565b90815260200160405180910390206040518060e00160405290816000820160009054906101000a900473ffffffffffffffffffffffffffffffffffffffff1673ffffffffffffffffffffffffffffffffffffffff1673ffffffffffffffffffffffffffffffffffffffff1681526020016001820160009054906101000a900473ffffffffffffffffffffffffffffffffffffffff1673ffffffffffffffffffffffffffffffffffffffff1673ffffffffffffffffffffffffffffffffffffffff1681526020016002820154815260200160038201548152602001600482015481526020016005820160009054906101000a900460ff166003811115610f9a577f4e487b7100000000000000000000000000000000000000000000000000000000600052602160045260246000fd5b6003811115610fd2577f4e487b7100000000000000000000000000000000000000000000000000000000600052602160045260246000fd5b8152602001600682018054610fe6906122ce565b80601f0160208091040260200160405190810160405280929190818152602001828054611012906122ce565b801561105f5780601f106110345761010080835404028352916020019161105f565b820191906000526020600020905b81548152906001019060200180831161104257829003601f168201915b50505050508152505090503373ffffffffffffffffffffffffffffffffffffffff16816000015173ffffffffffffffffffffffffffffffffffffffff16146110dc576040517f08c379a00000000000000000000000000000000000000000000000000000000081526004016110d390612125565b60405180910390fd5b60006003811115611116577f4e487b7100000000000000000000000000000000000000000000000000000000600052602160045260246000fd5b8160a001516003811115611153577f4e487b7100000000000000000000000000000000000000000000000000000000600052602160045260246000fd5b14611193576040517f08c379a000000000000000000000000000000000000000000000000000000000815260040161118a90612065565b60405180910390fd5b348160400151146111d9576040517f08c379a00000000000000000000000000000000000000000000000000000000081526004016111d090612145565b60405180910390fd5b60018160a001906003811115611218577f4e487b7100000000000000000000000000000000000000000000000000000000600052602160045260246000fd5b90816003811115611252577f4e487b7100000000000000000000000000000000000000000000000000000000600052602160045260246000fd5b81525050806000836040516112679190611f5d565b908152602001604051809103902060008201518160000160006101000a81548173ffffffffffffffffffffffffffffffffffffffff021916908373ffffffffffffffffffffffffffffffffffffffff16021790555060208201518160010160006101000a81548173ffffffffffffffffffffffffffffffffffffffff021916908373ffffffffffffffffffffffffffffffffffffffff16021790555060408201518160020155606082015181600301556080820151816004015560a08201518160050160006101000a81548160ff02191690836003811115611372577f4e487b7100000000000000000000000000000000000000000000000000000000600052602160045260246000fd5b021790555060c0820151816006019080519060200190611393929190611706565b509050507f1edd64b58386c1d71d81a1e054b76392e151205cd1bfeb39a4c8fbff14895ff2826040516113c69190611f89565b60405180910390a15050565b60018160400151101561141a576040517f08c379a000000000000000000000000000000000000000000000000000000000815260040161141190612105565b60405180910390fd5b3373ffffffffffffffffffffffffffffffffffffffff16816020015173ffffffffffffffffffffffffffffffffffffffff161461148c576040517f08c379a000000000000000000000000000000000000000000000000000000000815260040161148390612005565b60405180910390fd5b600081608001511180156114a55750600c816080015111155b6114e4576040517f08c379a00000000000000000000000000000000000000000000000000000000081526004016114db906120e5565b60405180910390fd5b4381606001818152505060008160a00190600381111561152d577f4e487b7100000000000000000000000000000000000000000000000000000000600052602160045260246000fd5b90816003811115611567577f4e487b7100000000000000000000000000000000000000000000000000000000600052602160045260246000fd5b815250508060008260c001516040516115809190611f5d565b908152602001604051809103902060008201518160000160006101000a81548173ffffffffffffffffffffffffffffffffffffffff021916908373ffffffffffffffffffffffffffffffffffffffff16021790555060208201518160010160006101000a81548173ffffffffffffffffffffffffffffffffffffffff021916908373ffffffffffffffffffffffffffffffffffffffff16021790555060408201518160020155606082015181600301556080820151816004015560a08201518160050160006101000a81548160ff0219169083600381111561168b577f4e487b7100000000000000000000000000000000000000000000000000000000600052602160045260246000fd5b021790555060c08201518160060190805190602001906116ac929190611706565b509050507f971caf62cfecfed652801b2ec94d492784e2c26baf68de3d9a8f2111e8f7040d8160c0015182604001518360800151846000015185602001516040516116fb959493929190611fab565b60405180910390a150565b828054611712906122ce565b90600052602060002090601f016020900481019282611734576000855561177b565b82601f1061174d57805160ff191683800117855561177b565b8280016001018555821561177b579182015b8281111561177a57825182559160200191906001019061175f565b5b509050611788919061182d565b5090565b6040518060e00160405280600073ffffffffffffffffffffffffffffffffffffffff168152602001600073ffffffffffffffffffffffffffffffffffffffff16815260200160008152602001600081526020016000815260200160006003811115611820577f4e487b7100000000000000000000000000000000000000000000000000000000600052602160045260246000fd5b8152602001606081525090565b5b8082111561184657600081600090555060010161182e565b5090565b600061185d611858846121b8565b612187565b90508281526020810184848401111561187557600080fd5b61188084828561228c565b509392505050565b600081359050611897816123b2565b92915050565b6000813590506118ac816123c9565b92915050565b600082601f8301126118c357600080fd5b81356118d384826020860161184a565b91505092915050565b600060e082840312156118ee57600080fd5b6118f860e0612187565b9050600061190884828501611888565b600083015250602061191c84828501611888565b6020830152506040611930848285016119a4565b6040830152506060611944848285016119a4565b6060830152506080611958848285016119a4565b60808301525060a061196c8482850161189d565b60a08301525060c082013567ffffffffffffffff81111561198c57600080fd5b611998848285016118b2565b60c08301525092915050565b6000813590506119b3816123d9565b92915050565b6000602082840312156119cb57600080fd5b600082013567ffffffffffffffff8111156119e557600080fd5b6119f1848285016118b2565b91505092915050565b600060208284031215611a0c57600080fd5b600082013567ffffffffffffffff811115611a2657600080fd5b611a32848285016118dc565b91505092915050565b611a448161222b565b82525050565b611a538161222b565b82525050565b611a628161227a565b82525050565b6000611a73826121e8565b611a7d81856121fe565b9350611a8d81856020860161229b565b611a968161238d565b840191505092915050565b6000611aac826121e8565b611ab6818561220f565b9350611ac681856020860161229b565b611acf8161238d565b840191505092915050565b6000611ae5826121e8565b611aef8185612220565b9350611aff81856020860161229b565b80840191505092915050565b6000611b1860228361220f565b91507f4c6f616e2072656365697665722073686f756c64206265206d73672073656e6460008301527f65720000000000000000000000000000000000000000000000000000000000006020830152604082019050919050565b6000611b7e601e8361220f565b91507f4f6e6c79206c656e6465722063616e20636c6f736520746865206c6f616e00006000830152602082019050919050565b6000611bbe60248361220f565b91507f4c6f616e206e6f7420696e20726563656976657220726563656976656420737460008301527f61747573000000000000000000000000000000000000000000000000000000006020830152604082019050919050565b6000611c24601a8361220f565b91507f4c6f616e206e6f7420696e20636f7272656374207374617475730000000000006000830152602082019050919050565b6000611c64601e8361220f565b91507f4c6f616e206e6f7420696e2073656e6465722073656e742073746174757300006000830152602082019050919050565b6000611ca460138361220f565b91507f496e76616c6964206c6f616e206c656e646565000000000000000000000000006000830152602082019050919050565b6000611ce460148361220f565b91507f4661696c656420746f2073656e642065746865720000000000000000000000006000830152602082019050919050565b6000611d246000836121f3565b9150600082019050919050565b6000611d3e60298361220f565b91507f4c6f616e2074656e7572652073686f756c64206265206265747765656e20312d60008301527f3132206d6f6e74687300000000000000000000000000000000000000000000006020830152604082019050919050565b6000611da4601b8361220f565b91507f4c6f616e20616d6f756e742073686f756c6420626520677465203100000000006000830152602082019050919050565b6000611de460238361220f565b91507f4c6f616e2063616e20626520617070726f766564206f6e6c79206279206c656e60008301527f64657200000000000000000000000000000000000000000000000000000000006020830152604082019050919050565b6000611e4a60228361220f565b91507f4c6f616e20616d6f756e742073686f756c64206d61746368206d73672076616c60008301527f75650000000000000000000000000000000000000000000000000000000000006020830152604082019050919050565b600060e083016000830151611ebb6000860182611a3b565b506020830151611ece6020860182611a3b565b506040830151611ee16040860182611f3f565b506060830151611ef46060860182611f3f565b506080830151611f076080860182611f3f565b5060a0830151611f1a60a0860182611a59565b5060c083015184820360c0860152611f328282611a68565b9150508091505092915050565b611f4881612270565b82525050565b611f5781612270565b82525050565b6000611f698284611ada565b915081905092915050565b6000611f7f82611d17565b9150819050919050565b60006020820190508181036000830152611fa38184611aa1565b905092915050565b600060a0820190508181036000830152611fc58188611aa1565b9050611fd46020830187611f4e565b611fe16040830186611f4e565b611fee6060830185611a4a565b611ffb6080830184611a4a565b9695505050505050565b6000602082019050818103600083015261201e81611b0b565b9050919050565b6000602082019050818103600083015261203e81611b71565b9050919050565b6000602082019050818103600083015261205e81611bb1565b9050919050565b6000602082019050818103600083015261207e81611c17565b9050919050565b6000602082019050818103600083015261209e81611c57565b9050919050565b600060208201905081810360008301526120be81611c97565b9050919050565b600060208201905081810360008301526120de81611cd7565b9050919050565b600060208201905081810360008301526120fe81611d31565b9050919050565b6000602082019050818103600083015261211e81611d97565b9050919050565b6000602082019050818103600083015261213e81611dd7565b9050919050565b6000602082019050818103600083015261215e81611e3d565b9050919050565b6000602082019050818103600083015261217f8184611ea3565b905092915050565b6000604051905081810181811067ffffffffffffffff821117156121ae576121ad61235e565b5b8060405250919050565b600067ffffffffffffffff8211156121d3576121d261235e565b5b601f19601f8301169050602081019050919050565b600081519050919050565b600081905092915050565b600082825260208201905092915050565b600082825260208201905092915050565b600081905092915050565b600061223682612250565b9050919050565b600081905061224b8261239e565b919050565b600073ffffffffffffffffffffffffffffffffffffffff82169050919050565b6000819050919050565b60006122858261223d565b9050919050565b82818337600083830152505050565b60005b838110156122b957808201518184015260208101905061229e565b838111156122c8576000848401525b50505050565b600060028204905060018216806122e657607f821691505b602082108114156122fa576122f961232f565b5b50919050565b7f4e487b7100000000000000000000000000000000000000000000000000000000600052602160045260246000fd5b7f4e487b7100000000000000000000000000000000000000000000000000000000600052602260045260246000fd5b7f4e487b7100000000000000000000000000000000000000000000000000000000600052604160045260246000fd5b6000601f19601f8301169050919050565b600481106123af576123ae612300565b5b50565b6123bb8161222b565b81146123c657600080fd5b50565b600481106123d657600080fd5b50565b6123e281612270565b81146123ed57600080fd5b5056fea264697066735822122019c9e7fc2e1162c49b91ada78d6769aac525322d8425461b68019a226bd12d9e64736f6c63430008000033",
  "linkReferences": {},
  "deployedLinkReferences": {}
}