{
  "_format": "hh-sol-artifact-1",
  "contractName": "Lend",
  "sourceName": "contracts/Lend.sol",
  "abi": [
    {
      "inputs": [],
      "stateMutability": "nonpayable",
      "type": "constructor"
    },
    {
      "inputs": [
        {
          "internalType": "string",
          "name": "_loanId",
          "type": "string"
        },
        {
          "internalType": "address",
          "name": "lendee",
          "type": "address"
        }
      ],
      "name": "approvaLoan",
      "outputs": [],
      "stateMutability": "payable",
      "type": "function"
    },
    {
      "inputs": [
        {
          "internalType": "string",
          "name": "_loanId",
          "type": "string"
        },
        {
          "internalType": "address",
          "name": "lendee",
          "type": "address"
        }
      ],
      "name": "closeLoan",
      "outputs": [],
      "stateMutability": "nonpayable",
      "type": "function"
    },
    {
      "inputs": [
        {
          "components": [
            {
              "internalType": "address",
              "name": "from",
              "type": "address"
            },
            {
              "internalType": "address",
              "name": "to",
              "type": "address"
            },
            {
              "internalType": "uint256",
              "name": "amount",
              "type": "uint256"
            },
            {
              "internalType": "uint256",
              "name": "block",
              "type": "uint256"
            },
            {
              "internalType": "uint256",
              "name": "months",
              "type": "uint256"
            },
            {
              "internalType": "enum Lend.LendStatus",
              "name": "status",
              "type": "uint8"
            },
            {
              "internalType": "string",
              "name": "loanId",
              "type": "string"
            }
          ],
          "internalType": "struct Lend.Ledger",
          "name": "_loan",
          "type": "tuple"
        }
      ],
      "name": "createLoan",
      "outputs": [],
      "stateMutability": "nonpayable",
      "type": "function"
    },
    {
      "inputs": [
        {
          "internalType": "string",
          "name": "_loanId",
          "type": "string"
        }
      ],
      "name": "getLoan",
      "outputs": [
        {
          "components": [
            {
              "internalType": "address",
              "name": "from",
              "type": "address"
            },
            {
              "internalType": "address",
              "name": "to",
              "type": "address"
            },
            {
              "internalType": "uint256",
              "name": "amount",
              "type": "uint256"
            },
            {
              "internalType": "uint256",
              "name": "block",
              "type": "uint256"
            },
            {
              "internalType": "uint256",
              "name": "months",
              "type": "uint256"
            },
            {
              "internalType": "enum Lend.LendStatus",
              "name": "status",
              "type": "uint8"
            },
            {
              "internalType": "string",
              "name": "loanId",
              "type": "string"
            }
          ],
          "internalType": "struct Lend.Ledger",
          "name": "_loan",
          "type": "tuple"
        }
      ],
      "stateMutability": "view",
      "type": "function"
    },
    {
      "inputs": [
        {
          "internalType": "string",
          "name": "_loanId",
          "type": "string"
        }
      ],
      "name": "receiveLoan",
      "outputs": [],
      "stateMutability": "nonpayable",
      "type": "function"
    }
  ],
  "bytecode": "0x608060405234801561001057600080fd5b50612544806100206000396000f3fe60806040526004361061004a5760003560e01c8063179235dd1461004f578063a13fed2514610078578063c47d258614610094578063fef3ffae146100d1578063ffb5313d146100fa575b600080fd5b34801561005b57600080fd5b5061007660048036038101906100719190611b30565b610123565b005b610092600480360381019061008d9190611b71565b6106df565b005b3480156100a057600080fd5b506100bb60048036038101906100b69190611b30565b610d0b565b6040516100c89190612283565b60405180910390f35b3480156100dd57600080fd5b506100f860048036038101906100f39190611bc5565b610f62565b005b34801561010657600080fd5b50610121600480360381019061011c9190611b71565b611309565b005b60008060003373ffffffffffffffffffffffffffffffffffffffff1673ffffffffffffffffffffffffffffffffffffffff1681526020019081526020016000208260405161017191906120f7565b90815260200160405180910390206040518060e00160405290816000820160009054906101000a900473ffffffffffffffffffffffffffffffffffffffff1673ffffffffffffffffffffffffffffffffffffffff1673ffffffffffffffffffffffffffffffffffffffff1681526020016001820160009054906101000a900473ffffffffffffffffffffffffffffffffffffffff1673ffffffffffffffffffffffffffffffffffffffff1673ffffffffffffffffffffffffffffffffffffffff1681526020016002820154815260200160038201548152602001600482015481526020016005820160009054906101000a900460ff16600381111561029f577f4e487b7100000000000000000000000000000000000000000000000000000000600052602160045260246000fd5b60038111156102d7577f4e487b7100000000000000000000000000000000000000000000000000000000600052602160045260246000fd5b81526020016006820180546102eb906123ec565b80601f0160208091040260200160405190810160405280929190818152602001828054610317906123ec565b80156103645780601f1061033957610100808354040283529160200191610364565b820191906000526020600020905b81548152906001019060200180831161034757829003601f168201915b5050505050815250509050600160038111156103a9577f4e487b7100000000000000000000000000000000000000000000000000000000600052602160045260246000fd5b8160a0015160038111156103e6577f4e487b7100000000000000000000000000000000000000000000000000000000600052602160045260246000fd5b14610426576040517f08c379a000000000000000000000000000000000000000000000000000000000815260040161041d906121c3565b60405180910390fd5b60028160a001906003811115610465577f4e487b7100000000000000000000000000000000000000000000000000000000600052602160045260246000fd5b9081600381111561049f577f4e487b7100000000000000000000000000000000000000000000000000000000600052602160045260246000fd5b81525050806000803373ffffffffffffffffffffffffffffffffffffffff1673ffffffffffffffffffffffffffffffffffffffff168152602001908152602001600020836040516104f091906120f7565b908152602001604051809103902060008201518160000160006101000a81548173ffffffffffffffffffffffffffffffffffffffff021916908373ffffffffffffffffffffffffffffffffffffffff16021790555060208201518160010160006101000a81548173ffffffffffffffffffffffffffffffffffffffff021916908373ffffffffffffffffffffffffffffffffffffffff16021790555060408201518160020155606082015181600301556080820151816004015560a08201518160050160006101000a81548160ff021916908360038111156105fb577f4e487b7100000000000000000000000000000000000000000000000000000000600052602160045260246000fd5b021790555060c082015181600601908051906020019061061c92919061187d565b5090505060008160200151905060008173ffffffffffffffffffffffffffffffffffffffff1683604001516040516106539061210e565b60006040518083038185875af1925050503d8060008114610690576040519150601f19603f3d011682016040523d82523d6000602084013e610695565b606091505b50509050806106d9576040517f08c379a00000000000000000000000000000000000000000000000000000000081526004016106d0906121e3565b60405180910390fd5b50505050565b60008060008373ffffffffffffffffffffffffffffffffffffffff1673ffffffffffffffffffffffffffffffffffffffff1681526020019081526020016000208360405161072d91906120f7565b90815260200160405180910390206040518060e00160405290816000820160009054906101000a900473ffffffffffffffffffffffffffffffffffffffff1673ffffffffffffffffffffffffffffffffffffffff1673ffffffffffffffffffffffffffffffffffffffff1681526020016001820160009054906101000a900473ffffffffffffffffffffffffffffffffffffffff1673ffffffffffffffffffffffffffffffffffffffff1673ffffffffffffffffffffffffffffffffffffffff1681526020016002820154815260200160038201548152602001600482015481526020016005820160009054906101000a900460ff16600381111561085b577f4e487b7100000000000000000000000000000000000000000000000000000000600052602160045260246000fd5b6003811115610893577f4e487b7100000000000000000000000000000000000000000000000000000000600052602160045260246000fd5b81526020016006820180546108a7906123ec565b80601f01602080910402602001604051908101604052809291908181526020018280546108d3906123ec565b80156109205780601f106108f557610100808354040283529160200191610920565b820191906000526020600020905b81548152906001019060200180831161090357829003601f168201915b50505050508152505090508173ffffffffffffffffffffffffffffffffffffffff16816020015173ffffffffffffffffffffffffffffffffffffffff161461099d576040517f08c379a000000000000000000000000000000000000000000000000000000000815260040161099490612203565b60405180910390fd5b3373ffffffffffffffffffffffffffffffffffffffff16816000015173ffffffffffffffffffffffffffffffffffffffff1614610a0f576040517f08c379a0000000000000000000000000000000000000000000000000000000008152600401610a0690612243565b60405180910390fd5b60006003811115610a49577f4e487b7100000000000000000000000000000000000000000000000000000000600052602160045260246000fd5b8160a001516003811115610a86577f4e487b7100000000000000000000000000000000000000000000000000000000600052602160045260246000fd5b14610ac6576040517f08c379a0000000000000000000000000000000000000000000000000000000008152600401610abd906121a3565b60405180910390fd5b34816040015114610b0c576040517f08c379a0000000000000000000000000000000000000000000000000000000008152600401610b0390612263565b60405180910390fd5b60018160a001906003811115610b4b577f4e487b7100000000000000000000000000000000000000000000000000000000600052602160045260246000fd5b90816003811115610b85577f4e487b7100000000000000000000000000000000000000000000000000000000600052602160045260246000fd5b81525050806000808473ffffffffffffffffffffffffffffffffffffffff1673ffffffffffffffffffffffffffffffffffffffff16815260200190815260200160002084604051610bd691906120f7565b908152602001604051809103902060008201518160000160006101000a81548173ffffffffffffffffffffffffffffffffffffffff021916908373ffffffffffffffffffffffffffffffffffffffff16021790555060208201518160010160006101000a81548173ffffffffffffffffffffffffffffffffffffffff021916908373ffffffffffffffffffffffffffffffffffffffff16021790555060408201518160020155606082015181600301556080820151816004015560a08201518160050160006101000a81548160ff02191690836003811115610ce1577f4e487b7100000000000000000000000000000000000000000000000000000000600052602160045260246000fd5b021790555060c0820151816006019080519060200190610d0292919061187d565b50905050505050565b610d13611903565b6000803373ffffffffffffffffffffffffffffffffffffffff1673ffffffffffffffffffffffffffffffffffffffff16815260200190815260200160002082604051610d5f91906120f7565b90815260200160405180910390206040518060e00160405290816000820160009054906101000a900473ffffffffffffffffffffffffffffffffffffffff1673ffffffffffffffffffffffffffffffffffffffff1673ffffffffffffffffffffffffffffffffffffffff1681526020016001820160009054906101000a900473ffffffffffffffffffffffffffffffffffffffff1673ffffffffffffffffffffffffffffffffffffffff1673ffffffffffffffffffffffffffffffffffffffff1681526020016002820154815260200160038201548152602001600482015481526020016005820160009054906101000a900460ff166003811115610e8d577f4e487b7100000000000000000000000000000000000000000000000000000000600052602160045260246000fd5b6003811115610ec5577f4e487b7100000000000000000000000000000000000000000000000000000000600052602160045260246000fd5b8152602001600682018054610ed9906123ec565b80601f0160208091040260200160405190810160405280929190818152602001828054610f05906123ec565b8015610f525780601f10610f2757610100808354040283529160200191610f52565b820191906000526020600020905b815481529060010190602001808311610f3557829003601f168201915b5050505050815250509050919050565b662386f26fc10000816040015111610faf576040517f08c379a0000000000000000000000000000000000000000000000000000000008152600401610fa690612163565b60405180910390fd5b3373ffffffffffffffffffffffffffffffffffffffff16816020015173ffffffffffffffffffffffffffffffffffffffff1614611021576040517f08c379a000000000000000000000000000000000000000000000000000000000815260040161101890612123565b60405180910390fd5b6000816080015111801561103a5750600c816080015111155b611079576040517f08c379a000000000000000000000000000000000000000000000000000000000815260040161107090612223565b60405180910390fd5b4381606001818152505060008160a0019060038111156110c2577f4e487b7100000000000000000000000000000000000000000000000000000000600052602160045260246000fd5b908160038111156110fc577f4e487b7100000000000000000000000000000000000000000000000000000000600052602160045260246000fd5b8152505080600080836020015173ffffffffffffffffffffffffffffffffffffffff1673ffffffffffffffffffffffffffffffffffffffff1681526020019081526020016000208260c0015160405161115591906120f7565b908152602001604051809103902060008201518160000160006101000a81548173ffffffffffffffffffffffffffffffffffffffff021916908373ffffffffffffffffffffffffffffffffffffffff16021790555060208201518160010160006101000a81548173ffffffffffffffffffffffffffffffffffffffff021916908373ffffffffffffffffffffffffffffffffffffffff16021790555060408201518160020155606082015181600301556080820151816004015560a08201518160050160006101000a81548160ff02191690836003811115611260577f4e487b7100000000000000000000000000000000000000000000000000000000600052602160045260246000fd5b021790555060c082015181600601908051906020019061128192919061187d565b5090505060016000826020015173ffffffffffffffffffffffffffffffffffffffff1673ffffffffffffffffffffffffffffffffffffffff1681526020019081526020016000208160c0015190806001815401808255809150506001900390600052602060002001600090919091909150908051906020019061130592919061187d565b5050565b60008060008373ffffffffffffffffffffffffffffffffffffffff1673ffffffffffffffffffffffffffffffffffffffff1681526020019081526020016000208360405161135791906120f7565b90815260200160405180910390206040518060e00160405290816000820160009054906101000a900473ffffffffffffffffffffffffffffffffffffffff1673ffffffffffffffffffffffffffffffffffffffff1673ffffffffffffffffffffffffffffffffffffffff1681526020016001820160009054906101000a900473ffffffffffffffffffffffffffffffffffffffff1673ffffffffffffffffffffffffffffffffffffffff1673ffffffffffffffffffffffffffffffffffffffff1681526020016002820154815260200160038201548152602001600482015481526020016005820160009054906101000a900460ff166003811115611485577f4e487b7100000000000000000000000000000000000000000000000000000000600052602160045260246000fd5b60038111156114bd577f4e487b7100000000000000000000000000000000000000000000000000000000600052602160045260246000fd5b81526020016006820180546114d1906123ec565b80601f01602080910402602001604051908101604052809291908181526020018280546114fd906123ec565b801561154a5780601f1061151f5761010080835404028352916020019161154a565b820191906000526020600020905b81548152906001019060200180831161152d57829003601f168201915b50505050508152505090506002600381111561158f577f4e487b7100000000000000000000000000000000000000000000000000000000600052602160045260246000fd5b8160a0015160038111156115cc577f4e487b7100000000000000000000000000000000000000000000000000000000600052602160045260246000fd5b1461160c576040517f08c379a000000000000000000000000000000000000000000000000000000000815260040161160390612183565b60405180910390fd5b3373ffffffffffffffffffffffffffffffffffffffff16816000015173ffffffffffffffffffffffffffffffffffffffff161461167e576040517f08c379a000000000000000000000000000000000000000000000000000000000815260040161167590612143565b60405180910390fd5b60038160a0019060038111156116bd577f4e487b7100000000000000000000000000000000000000000000000000000000600052602160045260246000fd5b908160038111156116f7577f4e487b7100000000000000000000000000000000000000000000000000000000600052602160045260246000fd5b81525050806000808473ffffffffffffffffffffffffffffffffffffffff1673ffffffffffffffffffffffffffffffffffffffff1681526020019081526020016000208460405161174891906120f7565b908152602001604051809103902060008201518160000160006101000a81548173ffffffffffffffffffffffffffffffffffffffff021916908373ffffffffffffffffffffffffffffffffffffffff16021790555060208201518160010160006101000a81548173ffffffffffffffffffffffffffffffffffffffff021916908373ffffffffffffffffffffffffffffffffffffffff16021790555060408201518160020155606082015181600301556080820151816004015560a08201518160050160006101000a81548160ff02191690836003811115611853577f4e487b7100000000000000000000000000000000000000000000000000000000600052602160045260246000fd5b021790555060c082015181600601908051906020019061187492919061187d565b50905050505050565b828054611889906123ec565b90600052602060002090601f0160209004810192826118ab57600085556118f2565b82601f106118c457805160ff19168380011785556118f2565b828001600101855582156118f2579182015b828111156118f15782518255916020019190600101906118d6565b5b5090506118ff91906119a4565b5090565b6040518060e00160405280600073ffffffffffffffffffffffffffffffffffffffff168152602001600073ffffffffffffffffffffffffffffffffffffffff16815260200160008152602001600081526020016000815260200160006003811115611997577f4e487b7100000000000000000000000000000000000000000000000000000000600052602160045260246000fd5b8152602001606081525090565b5b808211156119bd5760008160009055506001016119a5565b5090565b60006119d46119cf846122d6565b6122a5565b9050828152602081018484840111156119ec57600080fd5b6119f78482856123aa565b509392505050565b600081359050611a0e816124d0565b92915050565b600081359050611a23816124e7565b92915050565b600082601f830112611a3a57600080fd5b8135611a4a8482602086016119c1565b91505092915050565b600060e08284031215611a6557600080fd5b611a6f60e06122a5565b90506000611a7f848285016119ff565b6000830152506020611a93848285016119ff565b6020830152506040611aa784828501611b1b565b6040830152506060611abb84828501611b1b565b6060830152506080611acf84828501611b1b565b60808301525060a0611ae384828501611a14565b60a08301525060c082013567ffffffffffffffff811115611b0357600080fd5b611b0f84828501611a29565b60c08301525092915050565b600081359050611b2a816124f7565b92915050565b600060208284031215611b4257600080fd5b600082013567ffffffffffffffff811115611b5c57600080fd5b611b6884828501611a29565b91505092915050565b60008060408385031215611b8457600080fd5b600083013567ffffffffffffffff811115611b9e57600080fd5b611baa85828601611a29565b9250506020611bbb858286016119ff565b9150509250929050565b600060208284031215611bd757600080fd5b600082013567ffffffffffffffff811115611bf157600080fd5b611bfd84828501611a53565b91505092915050565b611c0f81612349565b82525050565b611c1e81612398565b82525050565b6000611c2f82612306565b611c39818561231c565b9350611c498185602086016123b9565b611c52816124ab565b840191505092915050565b6000611c6882612306565b611c72818561233e565b9350611c828185602086016123b9565b80840191505092915050565b6000611c9b60228361232d565b91507f4c6f616e2072656365697665722073686f756c64206265206d73672073656e6460008301527f65720000000000000000000000000000000000000000000000000000000000006020830152604082019050919050565b6000611d01601e8361232d565b91507f4f6e6c79206c656e6465722063616e20636c6f736520746865206c6f616e00006000830152602082019050919050565b6000611d4160278361232d565b91507f4c6f616e20616d6f756e742073686f756c64206265206772656174657220746860008301527f616e20302e3031000000000000000000000000000000000000000000000000006020830152604082019050919050565b6000611da760248361232d565b91507f4c6f616e206e6f7420696e20726563656976657220726563656976656420737460008301527f61747573000000000000000000000000000000000000000000000000000000006020830152604082019050919050565b6000611e0d601a8361232d565b91507f4c6f616e206e6f7420696e20636f7272656374207374617475730000000000006000830152602082019050919050565b6000611e4d601e8361232d565b91507f4c6f616e206e6f7420696e2073656e6465722073656e742073746174757300006000830152602082019050919050565b6000611e8d60148361232d565b91507f4661696c656420746f2073656e642065746865720000000000000000000000006000830152602082019050919050565b6000611ecd600c8361232d565b91507f496e76616c6964206c6f616e00000000000000000000000000000000000000006000830152602082019050919050565b6000611f0d600083612311565b9150600082019050919050565b6000611f2760298361232d565b91507f4c6f616e2074656e7572652073686f756c64206265206265747765656e20312d60008301527f3132206d6f6e74687300000000000000000000000000000000000000000000006020830152604082019050919050565b6000611f8d60238361232d565b91507f4c6f616e2063616e20626520617070726f766564206f6e6c79206279206c656e60008301527f64657200000000000000000000000000000000000000000000000000000000006020830152604082019050919050565b6000611ff360228361232d565b91507f4c6f616e20616d6f756e742073686f756c64206d61746368206d73672076616c60008301527f75650000000000000000000000000000000000000000000000000000000000006020830152604082019050919050565b600060e0830160008301516120646000860182611c06565b5060208301516120776020860182611c06565b50604083015161208a60408601826120e8565b50606083015161209d60608601826120e8565b5060808301516120b060808601826120e8565b5060a08301516120c360a0860182611c15565b5060c083015184820360c08601526120db8282611c24565b9150508091505092915050565b6120f18161238e565b82525050565b60006121038284611c5d565b915081905092915050565b600061211982611f00565b9150819050919050565b6000602082019050818103600083015261213c81611c8e565b9050919050565b6000602082019050818103600083015261215c81611cf4565b9050919050565b6000602082019050818103600083015261217c81611d34565b9050919050565b6000602082019050818103600083015261219c81611d9a565b9050919050565b600060208201905081810360008301526121bc81611e00565b9050919050565b600060208201905081810360008301526121dc81611e40565b9050919050565b600060208201905081810360008301526121fc81611e80565b9050919050565b6000602082019050818103600083015261221c81611ec0565b9050919050565b6000602082019050818103600083015261223c81611f1a565b9050919050565b6000602082019050818103600083015261225c81611f80565b9050919050565b6000602082019050818103600083015261227c81611fe6565b9050919050565b6000602082019050818103600083015261229d818461204c565b905092915050565b6000604051905081810181811067ffffffffffffffff821117156122cc576122cb61247c565b5b8060405250919050565b600067ffffffffffffffff8211156122f1576122f061247c565b5b601f19601f8301169050602081019050919050565b600081519050919050565b600081905092915050565b600082825260208201905092915050565b600082825260208201905092915050565b600081905092915050565b60006123548261236e565b9050919050565b6000819050612369826124bc565b919050565b600073ffffffffffffffffffffffffffffffffffffffff82169050919050565b6000819050919050565b60006123a38261235b565b9050919050565b82818337600083830152505050565b60005b838110156123d75780820151818401526020810190506123bc565b838111156123e6576000848401525b50505050565b6000600282049050600182168061240457607f821691505b602082108114156124185761241761244d565b5b50919050565b7f4e487b7100000000000000000000000000000000000000000000000000000000600052602160045260246000fd5b7f4e487b7100000000000000000000000000000000000000000000000000000000600052602260045260246000fd5b7f4e487b7100000000000000000000000000000000000000000000000000000000600052604160045260246000fd5b6000601f19601f8301169050919050565b600481106124cd576124cc61241e565b5b50565b6124d981612349565b81146124e457600080fd5b50565b600481106124f457600080fd5b50565b6125008161238e565b811461250b57600080fd5b5056fea2646970667358221220065829a810963d9a03b59b3c69fcb313ddfef91f5c858dfa3d1b14699ea9e7cf64736f6c63430008000033",
  "linkReferences": {},
  "deployedLinkReferences": {}
}