{
  "_format": "hh-sol-artifact-1",
  "contractName": "Lend",
  "sourceName": "contracts/Lend.sol",
  "abi": [
    {
      "inputs": [],
      "stateMutability": "nonpayable",
      "type": "constructor"
    },
    {
      "anonymous": false,
      "inputs": [
        {
          "indexed": true,
          "internalType": "bytes32",
          "name": "id",
          "type": "bytes32"
        }
      ],
      "name": "ChainlinkCancelled",
      "type": "event"
    },
    {
      "anonymous": false,
      "inputs": [
        {
          "indexed": true,
          "internalType": "bytes32",
          "name": "id",
          "type": "bytes32"
        }
      ],
      "name": "ChainlinkFulfilled",
      "type": "event"
    },
    {
      "anonymous": false,
      "inputs": [
        {
          "indexed": true,
          "internalType": "bytes32",
          "name": "id",
          "type": "bytes32"
        }
      ],
      "name": "ChainlinkRequested",
      "type": "event"
    },
    {
      "inputs": [
        {
          "internalType": "bytes32",
          "name": "_requestId",
          "type": "bytes32"
        },
        {
          "internalType": "enum Lend.LendStatus",
          "name": "_status",
          "type": "uint8"
        }
      ],
      "name": "_callback",
      "outputs": [],
      "stateMutability": "nonpayable",
      "type": "function"
    },
    {
      "inputs": [
        {
          "internalType": "string",
          "name": "_loanId",
          "type": "string"
        }
      ],
      "name": "approvaLoan",
      "outputs": [],
      "stateMutability": "payable",
      "type": "function"
    },
    {
      "inputs": [
        {
          "internalType": "string",
          "name": "_loanId",
          "type": "string"
        }
      ],
      "name": "closeLoan",
      "outputs": [],
      "stateMutability": "payable",
      "type": "function"
    },
    {
      "inputs": [
        {
          "components": [
            {
              "internalType": "address",
              "name": "from",
              "type": "address"
            },
            {
              "internalType": "address",
              "name": "to",
              "type": "address"
            },
            {
              "internalType": "uint256",
              "name": "amount",
              "type": "uint256"
            },
            {
              "internalType": "uint256",
              "name": "block",
              "type": "uint256"
            },
            {
              "internalType": "uint256",
              "name": "months",
              "type": "uint256"
            },
            {
              "internalType": "enum Lend.LendStatus",
              "name": "status",
              "type": "uint8"
            },
            {
              "internalType": "string",
              "name": "loanId",
              "type": "string"
            }
          ],
          "internalType": "struct Lend.Ledger",
          "name": "_loan",
          "type": "tuple"
        },
        {
          "internalType": "string",
          "name": "_metadata",
          "type": "string"
        }
      ],
      "name": "createLoan",
      "outputs": [],
      "stateMutability": "nonpayable",
      "type": "function"
    },
    {
      "inputs": [
        {
          "internalType": "string",
          "name": "_loanId",
          "type": "string"
        }
      ],
      "name": "getLoan",
      "outputs": [
        {
          "components": [
            {
              "internalType": "address",
              "name": "from",
              "type": "address"
            },
            {
              "internalType": "address",
              "name": "to",
              "type": "address"
            },
            {
              "internalType": "uint256",
              "name": "amount",
              "type": "uint256"
            },
            {
              "internalType": "uint256",
              "name": "block",
              "type": "uint256"
            },
            {
              "internalType": "uint256",
              "name": "months",
              "type": "uint256"
            },
            {
              "internalType": "enum Lend.LendStatus",
              "name": "status",
              "type": "uint8"
            },
            {
              "internalType": "string",
              "name": "loanId",
              "type": "string"
            }
          ],
          "internalType": "struct Lend.Ledger",
          "name": "_loan",
          "type": "tuple"
        }
      ],
      "stateMutability": "view",
      "type": "function"
    },
    {
      "inputs": [
        {
          "internalType": "string",
          "name": "_loanId",
          "type": "string"
        }
      ],
      "name": "receiveLoan",
      "outputs": [],
      "stateMutability": "nonpayable",
      "type": "function"
    }
  ],
  "bytecode": "0x608060405260016004553480156200001657600080fd5b506200003c73326c977e6efc84e512bb9c30f76e30c160ed06fb620000cc60201b60201c565b7358bbdbfb6fca3129b91f0dbe372098123b38b5e9600660006101000a81548173ffffffffffffffffffffffffffffffffffffffff021916908373ffffffffffffffffffffffffffffffffffffffff1602179055507f6461323061616530653463383433663639343965356362336637636665386334600781905550662386f26fc1000060088190555062000110565b80600260006101000a81548173ffffffffffffffffffffffffffffffffffffffff021916908373ffffffffffffffffffffffffffffffffffffffff16021790555050565b61396680620001206000396000f3fe6080604052600436106100555760003560e01c8063179235dd1461005a57806342ca2c161461008357806368568790146100ac5780636f3ee117146100d5578063c47d2586146100f1578063d6bd2d391461012e575b600080fd5b34801561006657600080fd5b50610081600480360381019061007c9190612729565b61014a565b005b34801561008f57600080fd5b506100aa60048036038101906100a591906126ed565b61060b565b005b3480156100b857600080fd5b506100d360048036038101906100ce919061276a565b610b84565b005b6100ef60048036038101906100ea9190612729565b610e9d565b005b3480156100fd57600080fd5b5061011860048036038101906101139190612729565b6113a5565b604051610125919061323e565b60405180910390f35b61014860048036038101906101439190612729565b6115c0565b005b600060098260405161015c9190612f48565b90815260200160405180910390206040518060e00160405290816000820160009054906101000a900473ffffffffffffffffffffffffffffffffffffffff1673ffffffffffffffffffffffffffffffffffffffff1673ffffffffffffffffffffffffffffffffffffffff1681526020016001820160009054906101000a900473ffffffffffffffffffffffffffffffffffffffff1673ffffffffffffffffffffffffffffffffffffffff1673ffffffffffffffffffffffffffffffffffffffff1681526020016002820154815260200160038201548152602001600482015481526020016005820160009054906101000a900460ff16600381111561028a577f4e487b7100000000000000000000000000000000000000000000000000000000600052602160045260246000fd5b60038111156102c2577f4e487b7100000000000000000000000000000000000000000000000000000000600052602160045260246000fd5b81526020016006820180546102d69061367e565b80601f01602080910402602001604051908101604052809291908181526020018280546103029061367e565b801561034f5780601f106103245761010080835404028352916020019161034f565b820191906000526020600020905b81548152906001019060200180831161033257829003601f168201915b505050505081525050905060016003811115610394577f4e487b7100000000000000000000000000000000000000000000000000000000600052602160045260246000fd5b8160a0015160038111156103d1577f4e487b7100000000000000000000000000000000000000000000000000000000600052602160045260246000fd5b14610411576040517f08c379a00000000000000000000000000000000000000000000000000000000081526004016104089061311e565b60405180910390fd5b3373ffffffffffffffffffffffffffffffffffffffff16816020015173ffffffffffffffffffffffffffffffffffffffff1614610483576040517f08c379a000000000000000000000000000000000000000000000000000000000815260040161047a9061313e565b60405180910390fd5b61054c82600a846040516104979190612f48565b908152602001604051809103902080546104b09061367e565b80601f01602080910402602001604051908101604052809291908181526020018280546104dc9061367e565b80156105295780601f106104fe57610100808354040283529160200191610529565b820191906000526020600020905b81548152906001019060200180831161050c57829003601f168201915b50505050506040518060600160405280602f81526020016138d3602f9139611a0c565b60008160200151905060008173ffffffffffffffffffffffffffffffffffffffff16836040015160405161057f90612fa6565b60006040518083038185875af1925050503d80600081146105bc576040519150601f19603f3d011682016040523d82523d6000602084013e6105c1565b606091505b5050905080610605576040517f08c379a00000000000000000000000000000000000000000000000000000000081526004016105fc906130be565b60405180910390fd5b50505050565b816005600082815260200190815260200160002060009054906101000a900473ffffffffffffffffffffffffffffffffffffffff1673ffffffffffffffffffffffffffffffffffffffff163373ffffffffffffffffffffffffffffffffffffffff16146106ad576040517f08c379a00000000000000000000000000000000000000000000000000000000081526004016106a49061319e565b60405180910390fd5b6005600082815260200190815260200160002060006101000a81549073ffffffffffffffffffffffffffffffffffffffff0219169055807f7cc135e0cebb02c3480ae5d74d377283180a2601f8f644edf7987b009316c63a60405160405180910390a26000600b600085815260200190815260200160002080546107309061367e565b80601f016020809104026020016040519081016040528092919081815260200182805461075c9061367e565b80156107a95780601f1061077e576101008083540402835291602001916107a9565b820191906000526020600020905b81548152906001019060200180831161078c57829003601f168201915b5050505050905060006009826040516107c29190612f48565b90815260200160405180910390206040518060e00160405290816000820160009054906101000a900473ffffffffffffffffffffffffffffffffffffffff1673ffffffffffffffffffffffffffffffffffffffff1673ffffffffffffffffffffffffffffffffffffffff1681526020016001820160009054906101000a900473ffffffffffffffffffffffffffffffffffffffff1673ffffffffffffffffffffffffffffffffffffffff1673ffffffffffffffffffffffffffffffffffffffff1681526020016002820154815260200160038201548152602001600482015481526020016005820160009054906101000a900460ff1660038111156108f0577f4e487b7100000000000000000000000000000000000000000000000000000000600052602160045260246000fd5b6003811115610928577f4e487b7100000000000000000000000000000000000000000000000000000000600052602160045260246000fd5b815260200160068201805461093c9061367e565b80601f01602080910402602001604051908101604052809291908181526020018280546109689061367e565b80156109b55780601f1061098a576101008083540402835291602001916109b5565b820191906000526020600020905b81548152906001019060200180831161099857829003601f168201915b5050505050815250509050838160a0019060038111156109fe577f4e487b7100000000000000000000000000000000000000000000000000000000600052602160045260246000fd5b90816003811115610a38577f4e487b7100000000000000000000000000000000000000000000000000000000600052602160045260246000fd5b8152505080600983604051610a4d9190612f48565b908152602001604051809103902060008201518160000160006101000a81548173ffffffffffffffffffffffffffffffffffffffff021916908373ffffffffffffffffffffffffffffffffffffffff16021790555060208201518160010160006101000a81548173ffffffffffffffffffffffffffffffffffffffff021916908373ffffffffffffffffffffffffffffffffffffffff16021790555060408201518160020155606082015181600301556080820151816004015560a08201518160050160006101000a81548160ff02191690836003811115610b58577f4e487b7100000000000000000000000000000000000000000000000000000000600052602160045260246000fd5b021790555060c0820151816006019080519060200190610b79929190612360565b509050505050505050565b600182604001511015610bcc576040517f08c379a0000000000000000000000000000000000000000000000000000000008152600401610bc3906131de565b60405180910390fd5b3373ffffffffffffffffffffffffffffffffffffffff16826020015173ffffffffffffffffffffffffffffffffffffffff1614610c3e576040517f08c379a0000000000000000000000000000000000000000000000000000000008152600401610c359061307e565b60405180910390fd5b60008260800151118015610c575750600c826080015111155b610c96576040517f08c379a0000000000000000000000000000000000000000000000000000000008152600401610c8d906131be565b60405180910390fd5b4382606001818152505060008260a001906003811115610cdf577f4e487b7100000000000000000000000000000000000000000000000000000000600052602160045260246000fd5b90816003811115610d19577f4e487b7100000000000000000000000000000000000000000000000000000000600052602160045260246000fd5b815250508160098360c00151604051610d329190612f48565b908152602001604051809103902060008201518160000160006101000a81548173ffffffffffffffffffffffffffffffffffffffff021916908373ffffffffffffffffffffffffffffffffffffffff16021790555060208201518160010160006101000a81548173ffffffffffffffffffffffffffffffffffffffff021916908373ffffffffffffffffffffffffffffffffffffffff16021790555060408201518160020155606082015181600301556080820151816004015560a08201518160050160006101000a81548160ff02191690836003811115610e3d577f4e487b7100000000000000000000000000000000000000000000000000000000600052602160045260246000fd5b021790555060c0820151816006019080519060200190610e5e929190612360565b5090505080600a8360c00151604051610e779190612f48565b90815260200160405180910390209080519060200190610e98929190612360565b505050565b6000600982604051610eaf9190612f48565b90815260200160405180910390206040518060e00160405290816000820160009054906101000a900473ffffffffffffffffffffffffffffffffffffffff1673ffffffffffffffffffffffffffffffffffffffff1673ffffffffffffffffffffffffffffffffffffffff1681526020016001820160009054906101000a900473ffffffffffffffffffffffffffffffffffffffff1673ffffffffffffffffffffffffffffffffffffffff1673ffffffffffffffffffffffffffffffffffffffff1681526020016002820154815260200160038201548152602001600482015481526020016005820160009054906101000a900460ff166003811115610fdd577f4e487b7100000000000000000000000000000000000000000000000000000000600052602160045260246000fd5b6003811115611015577f4e487b7100000000000000000000000000000000000000000000000000000000600052602160045260246000fd5b81526020016006820180546110299061367e565b80601f01602080910402602001604051908101604052809291908181526020018280546110559061367e565b80156110a25780601f10611077576101008083540402835291602001916110a2565b820191906000526020600020905b81548152906001019060200180831161108557829003601f168201915b5050505050815250509050600260038111156110e7577f4e487b7100000000000000000000000000000000000000000000000000000000600052602160045260246000fd5b8160a001516003811115611124577f4e487b7100000000000000000000000000000000000000000000000000000000600052602160045260246000fd5b14611164576040517f08c379a000000000000000000000000000000000000000000000000000000000815260040161115b906130de565b60405180910390fd5b3373ffffffffffffffffffffffffffffffffffffffff16816020015173ffffffffffffffffffffffffffffffffffffffff16146111d6576040517f08c379a00000000000000000000000000000000000000000000000000000000081526004016111cd9061315e565b60405180910390fd5b806040015134101561121d576040517f08c379a00000000000000000000000000000000000000000000000000000000081526004016112149061321e565b60405180910390fd5b6112e682600a846040516112319190612f48565b9081526020016040518091039020805461124a9061367e565b80601f01602080910402602001604051908101604052809291908181526020018280546112769061367e565b80156112c35780601f10611298576101008083540402835291602001916112c3565b820191906000526020600020905b8154815290600101906020018083116112a657829003601f168201915b50505050506040518060600160405280602d81526020016138a6602d9139611a0c565b60008160000151905060008173ffffffffffffffffffffffffffffffffffffffff16836040015160405161131990612fa6565b60006040518083038185875af1925050503d8060008114611356576040519150601f19603f3d011682016040523d82523d6000602084013e61135b565b606091505b505090508061139f576040517f08c379a00000000000000000000000000000000000000000000000000000000081526004016113969061317e565b60405180910390fd5b50505050565b6113ad6123e6565b6009826040516113bd9190612f48565b90815260200160405180910390206040518060e00160405290816000820160009054906101000a900473ffffffffffffffffffffffffffffffffffffffff1673ffffffffffffffffffffffffffffffffffffffff1673ffffffffffffffffffffffffffffffffffffffff1681526020016001820160009054906101000a900473ffffffffffffffffffffffffffffffffffffffff1673ffffffffffffffffffffffffffffffffffffffff1673ffffffffffffffffffffffffffffffffffffffff1681526020016002820154815260200160038201548152602001600482015481526020016005820160009054906101000a900460ff1660038111156114eb577f4e487b7100000000000000000000000000000000000000000000000000000000600052602160045260246000fd5b6003811115611523577f4e487b7100000000000000000000000000000000000000000000000000000000600052602160045260246000fd5b81526020016006820180546115379061367e565b80601f01602080910402602001604051908101604052809291908181526020018280546115639061367e565b80156115b05780601f10611585576101008083540402835291602001916115b0565b820191906000526020600020905b81548152906001019060200180831161159357829003601f168201915b5050505050815250509050919050565b60006009826040516115d29190612f48565b90815260200160405180910390206040518060e00160405290816000820160009054906101000a900473ffffffffffffffffffffffffffffffffffffffff1673ffffffffffffffffffffffffffffffffffffffff1673ffffffffffffffffffffffffffffffffffffffff1681526020016001820160009054906101000a900473ffffffffffffffffffffffffffffffffffffffff1673ffffffffffffffffffffffffffffffffffffffff1673ffffffffffffffffffffffffffffffffffffffff1681526020016002820154815260200160038201548152602001600482015481526020016005820160009054906101000a900460ff166003811115611700577f4e487b7100000000000000000000000000000000000000000000000000000000600052602160045260246000fd5b6003811115611738577f4e487b7100000000000000000000000000000000000000000000000000000000600052602160045260246000fd5b815260200160068201805461174c9061367e565b80601f01602080910402602001604051908101604052809291908181526020018280546117789061367e565b80156117c55780601f1061179a576101008083540402835291602001916117c5565b820191906000526020600020905b8154815290600101906020018083116117a857829003601f168201915b50505050508152505090503373ffffffffffffffffffffffffffffffffffffffff16816000015173ffffffffffffffffffffffffffffffffffffffff1614611842576040517f08c379a0000000000000000000000000000000000000000000000000000000008152600401611839906131fe565b60405180910390fd5b6000600381111561187c577f4e487b7100000000000000000000000000000000000000000000000000000000600052602160045260246000fd5b8160a0015160038111156118b9577f4e487b7100000000000000000000000000000000000000000000000000000000600052602160045260246000fd5b146118f9576040517f08c379a00000000000000000000000000000000000000000000000000000000081526004016118f0906130fe565b60405180910390fd5b3481604001511461193f576040517f08c379a00000000000000000000000000000000000000000000000000000000081526004016119369061321e565b60405180910390fd5b611a0882600a846040516119539190612f48565b9081526020016040518091039020805461196c9061367e565b80601f01602080910402602001604051908101604052809291908181526020018280546119989061367e565b80156119e55780601f106119ba576101008083540402835291602001916119e5565b820191906000526020600020905b8154815290600101906020018083116119c857829003601f168201915b50505050506040518060600160405280602f8152602001613902602f9139611a0c565b5050565b6000818484604051602001611a2393929190612f5f565b60405160208183030381529060405290506000611a4a600754306342ca2c1660e01b611b78565b9050611a966040518060400160405280600381526020017f67657400000000000000000000000000000000000000000000000000000000008152508383611ba99092919063ffffffff16565b611b156040518060400160405280600481526020017f70617468000000000000000000000000000000000000000000000000000000008152506040518060400160405280600681526020017f737461747573000000000000000000000000000000000000000000000000000081525083611ba99092919063ffffffff16565b6000611b46600660009054906101000a900473ffffffffffffffffffffffffffffffffffffffff1683600854611bdc565b905085600b60008381526020019081526020016000209080519060200190611b6f929190612360565b50505050505050565b611b80612487565b611b88612487565b611b9f85858584611bfc909392919063ffffffff16565b9150509392505050565b611bc0828460800151611cac90919063ffffffff16565b611bd7818460800151611cac90919063ffffffff16565b505050565b6000611bf38484846001634042994660e01b611cd1565b90509392505050565b611c04612487565b611c148560800151610100611f39565b508385600001818152505082856020019073ffffffffffffffffffffffffffffffffffffffff16908173ffffffffffffffffffffffffffffffffffffffff16815250508185604001907bffffffffffffffffffffffffffffffffffffffffffffffffffffffff191690817bffffffffffffffffffffffffffffffffffffffffffffffffffffffff191681525050849050949350505050565b611cb98260038351611fa3565b611ccc81836120e890919063ffffffff16565b505050565b600030600454604051602001611ce8929190612f1c565b604051602081830303815290604052805190602001209050600454856060018181525050856005600083815260200190815260200160002060006101000a81548173ffffffffffffffffffffffffffffffffffffffff021916908373ffffffffffffffffffffffffffffffffffffffff160217905550807fb5e6e01e79f91267dc17b4e6314d5d4d03593d2ceee0fbb452b750bd70ea5af960405160405180910390a2600082600080886000015189602001518a604001518b606001518a8d6080015160000151604051602401611dc6989796959493929190612fbb565b604051602081830303815290604052907bffffffffffffffffffffffffffffffffffffffffffffffffffffffff19166020820180517bffffffffffffffffffffffffffffffffffffffffffffffffffffffff83818316178352505050509050600260009054906101000a900473ffffffffffffffffffffffffffffffffffffffff1673ffffffffffffffffffffffffffffffffffffffff16634000aea08887846040518463ffffffff1660e01b8152600401611e8493929190613040565b602060405180830381600087803b158015611e9e57600080fd5b505af1158015611eb2573d6000803e3d6000fd5b505050506040513d601f19601f82011682018060405250810190611ed691906126c4565b611f15576040517f08c379a0000000000000000000000000000000000000000000000000000000008152600401611f0c9061309e565b60405180910390fd5b600160046000828254611f289190613320565b925050819055505095945050505050565b611f416124f4565b6000602083611f5091906136de565b14611f7c57602082611f6291906136de565b6020611f6e9190613541565b82611f799190613320565b91505b81836020018181525050604051808452600081528281016020016040525082905092915050565b60178111611fd057611fca8160058460ff16901b60ff16178461210a90919063ffffffff16565b506120e3565b60ff811161201257611ff5601860058460ff16901b178461210a90919063ffffffff16565b5061200c8160018561212a9092919063ffffffff16565b506120e2565b61ffff811161205557612038601960058460ff16901b178461210a90919063ffffffff16565b5061204f8160028561212a9092919063ffffffff16565b506120e1565b63ffffffff811161209a5761207d601a60058460ff16901b178461210a90919063ffffffff16565b506120948160048561212a9092919063ffffffff16565b506120e0565b67ffffffffffffffff81116120df576120c6601b60058460ff16901b178461210a90919063ffffffff16565b506120dd8160088561212a9092919063ffffffff16565b505b5b5b5b5b505050565b6120f06124f4565b6121028384600001515184855161214c565b905092915050565b6121126124f4565b612122838460000151518461223b565b905092915050565b6121326124f4565b612143848560000151518585612292565b90509392505050565b6121546124f4565b825182111561216257600080fd5b846020015182856121739190613320565b11156121a8576121a7856002612198886020015188876121939190613320565b612320565b6121a291906134e7565b61233c565b5b6000808651805187602083010193508088870111156121c75787860182525b60208701925050505b6020841061220e57805182526020826121e99190613320565b91506020816121f89190613320565b90506020846122079190613541565b93506121d0565b60006001856020036101000a03905080198251168184511681811785525050508692505050949350505050565b6122436124f4565b8360200151831061226957612268846002866020015161226391906134e7565b61233c565b5b8351805160208583010184815381861415612285576001820183525b5050508390509392505050565b61229a6124f4565b846020015184836122ab9190613320565b11156122d3576122d285600286856122c39190613320565b6122cd91906134e7565b61233c565b5b60006001836101006122e591906133c9565b6122ef9190613541565b905085518386820101858319825116178152815185880111156123125784870182525b505085915050949350505050565b60008183111561233257829050612336565b8190505b92915050565b60008260000151905061234f8383611f39565b5061235a83826120e8565b50505050565b82805461236c9061367e565b90600052602060002090601f01602090048101928261238e57600085556123d5565b82601f106123a757805160ff19168380011785556123d5565b828001600101855582156123d5579182015b828111156123d45782518255916020019190600101906123b9565b5b5090506123e2919061250e565b5090565b6040518060e00160405280600073ffffffffffffffffffffffffffffffffffffffff168152602001600073ffffffffffffffffffffffffffffffffffffffff1681526020016000815260200160008152602001600081526020016000600381111561247a577f4e487b7100000000000000000000000000000000000000000000000000000000600052602160045260246000fd5b8152602001606081525090565b6040518060a0016040528060008019168152602001600073ffffffffffffffffffffffffffffffffffffffff16815260200160007bffffffffffffffffffffffffffffffffffffffffffffffffffffffff19168152602001600081526020016124ee6124f4565b81525090565b604051806040016040528060608152602001600081525090565b5b8082111561252757600081600090555060010161250f565b5090565b600061253e61253984613291565b613260565b90508281526020810184848401111561255657600080fd5b61256184828561363c565b509392505050565b60008135905061257881613839565b92915050565b60008151905061258d81613850565b92915050565b6000813590506125a281613867565b92915050565b6000813590506125b78161387e565b92915050565b600082601f8301126125ce57600080fd5b81356125de84826020860161252b565b91505092915050565b600060e082840312156125f957600080fd5b61260360e0613260565b9050600061261384828501612569565b600083015250602061262784828501612569565b602083015250604061263b848285016126af565b604083015250606061264f848285016126af565b6060830152506080612663848285016126af565b60808301525060a0612677848285016125a8565b60a08301525060c082013567ffffffffffffffff81111561269757600080fd5b6126a3848285016125bd565b60c08301525092915050565b6000813590506126be8161388e565b92915050565b6000602082840312156126d657600080fd5b60006126e48482850161257e565b91505092915050565b6000806040838503121561270057600080fd5b600061270e85828601612593565b925050602061271f858286016125a8565b9150509250929050565b60006020828403121561273b57600080fd5b600082013567ffffffffffffffff81111561275557600080fd5b612761848285016125bd565b91505092915050565b6000806040838503121561277d57600080fd5b600083013567ffffffffffffffff81111561279757600080fd5b6127a3858286016125e7565b925050602083013567ffffffffffffffff8111156127c057600080fd5b6127cc858286016125bd565b9150509250929050565b6127df81613575565b82525050565b6127ee81613575565b82525050565b6127fd81613593565b82525050565b61280c8161359d565b82525050565b600061281d826132c1565b61282781856132d7565b935061283781856020860161364b565b612840816137fa565b840191505092915050565b61285c61285782613606565b6136b0565b82525050565b61286b8161362a565b82525050565b600061287c826132cc565b61288681856132f3565b935061289681856020860161364b565b61289f816137fa565b840191505092915050565b60006128b5826132cc565b6128bf8185613315565b93506128cf81856020860161364b565b80840191505092915050565b60006128e8602283613304565b91507f4c6f616e2072656365697665722073686f756c64206265206d73672073656e6460008301527f65720000000000000000000000000000000000000000000000000000000000006020830152604082019050919050565b600061294e602383613304565b91507f756e61626c6520746f207472616e73666572416e6443616c6c20746f206f726160008301527f636c6500000000000000000000000000000000000000000000000000000000006020830152604082019050919050565b60006129b4602183613304565b91507f4661696c656420746f2073656e6420746865206c6f616e20746f206c656e646560008301527f65000000000000000000000000000000000000000000000000000000000000006020830152604082019050919050565b6000612a1a602483613304565b91507f4c6f616e206e6f7420696e20726563656976657220726563656976656420737460008301527f61747573000000000000000000000000000000000000000000000000000000006020830152604082019050919050565b6000612a80600883613315565b91507f3f6c6f616e49643d0000000000000000000000000000000000000000000000006000830152600882019050919050565b6000612ac0601a83613304565b91507f4c6f616e206e6f7420696e20636f7272656374207374617475730000000000006000830152602082019050919050565b6000612b00601e83613304565b91507f4c6f616e206e6f7420696e2073656e6465722073656e742073746174757300006000830152602082019050919050565b6000612b40601383613304565b91507f496e76616c6964206c6f616e206c656e646565000000000000000000000000006000830152602082019050919050565b6000612b80601e83613304565b91507f4f6e6c79206c656e6465652063616e20636c6f736520746865206c6f616e00006000830152602082019050919050565b6000612bc0600883613315565b91507f267468726561643d0000000000000000000000000000000000000000000000006000830152600882019050919050565b6000612c006000836132e8565b9150600082019050919050565b6000612c1a602583613304565b91507f4661696c656420746f20706179206261636b20746865206c6f616e20746f206c60008301527f656e6465720000000000000000000000000000000000000000000000000000006020830152604082019050919050565b6000612c80602883613304565b91507f536f75726365206d75737420626520746865206f7261636c65206f662074686560008301527f20726571756573740000000000000000000000000000000000000000000000006020830152604082019050919050565b6000612ce6602983613304565b91507f4c6f616e2074656e7572652073686f756c64206265206265747765656e20312d60008301527f3132206d6f6e74687300000000000000000000000000000000000000000000006020830152604082019050919050565b6000612d4c601b83613304565b91507f4c6f616e20616d6f756e742073686f756c6420626520677465203100000000006000830152602082019050919050565b6000612d8c602383613304565b91507f4c6f616e2063616e20626520617070726f766564206f6e6c79206279206c656e60008301527f64657200000000000000000000000000000000000000000000000000000000006020830152604082019050919050565b6000612df2602283613304565b91507f4c6f616e20616d6f756e742073686f756c64206d61746368206d73672076616c60008301527f75650000000000000000000000000000000000000000000000000000000000006020830152604082019050919050565b600060e083016000830151612e6360008601826127d6565b506020830151612e7660208601826127d6565b506040830151612e896040860182612ee7565b506060830151612e9c6060860182612ee7565b506080830151612eaf6080860182612ee7565b5060a0830151612ec260a0860182612862565b5060c083015184820360c0860152612eda8282612871565b9150508091505092915050565b612ef0816135fc565b82525050565b612eff816135fc565b82525050565b612f16612f11826135fc565b6136d4565b82525050565b6000612f28828561284b565b601482019150612f388284612f05565b6020820191508190509392505050565b6000612f5482846128aa565b915081905092915050565b6000612f6b82866128aa565b9150612f7682612a73565b9150612f8282856128aa565b9150612f8d82612bb3565b9150612f9982846128aa565b9150819050949350505050565b6000612fb182612bf3565b9150819050919050565b600061010082019050612fd1600083018b6127e5565b612fde602083018a612ef6565b612feb60408301896127f4565b612ff860608301886127e5565b6130056080830187612803565b61301260a0830186612ef6565b61301f60c0830185612ef6565b81810360e08301526130318184612812565b90509998505050505050505050565b600060608201905061305560008301866127e5565b6130626020830185612ef6565b81810360408301526130748184612812565b9050949350505050565b60006020820190508181036000830152613097816128db565b9050919050565b600060208201905081810360008301526130b781612941565b9050919050565b600060208201905081810360008301526130d7816129a7565b9050919050565b600060208201905081810360008301526130f781612a0d565b9050919050565b6000602082019050818103600083015261311781612ab3565b9050919050565b6000602082019050818103600083015261313781612af3565b9050919050565b6000602082019050818103600083015261315781612b33565b9050919050565b6000602082019050818103600083015261317781612b73565b9050919050565b6000602082019050818103600083015261319781612c0d565b9050919050565b600060208201905081810360008301526131b781612c73565b9050919050565b600060208201905081810360008301526131d781612cd9565b9050919050565b600060208201905081810360008301526131f781612d3f565b9050919050565b6000602082019050818103600083015261321781612d7f565b9050919050565b6000602082019050818103600083015261323781612de5565b9050919050565b600060208201905081810360008301526132588184612e4b565b905092915050565b6000604051905081810181811067ffffffffffffffff82111715613287576132866137cb565b5b8060405250919050565b600067ffffffffffffffff8211156132ac576132ab6137cb565b5b601f19601f8301169050602081019050919050565b600081519050919050565b600081519050919050565b600082825260208201905092915050565b600081905092915050565b600082825260208201905092915050565b600082825260208201905092915050565b600081905092915050565b600061332b826135fc565b9150613336836135fc565b9250827fffffffffffffffffffffffffffffffffffffffffffffffffffffffffffffffff0382111561336b5761336a61370f565b5b828201905092915050565b6000808291508390505b60018511156133c05780860481111561339c5761339b61370f565b5b60018516156133ab5780820291505b80810290506133b985613818565b9450613380565b94509492505050565b60006133d4826135fc565b91506133df836135fc565b925061340c7fffffffffffffffffffffffffffffffffffffffffffffffffffffffffffffffff8484613414565b905092915050565b60008261342457600190506134e0565b8161343257600090506134e0565b8160018114613448576002811461345257613481565b60019150506134e0565b60ff8411156134645761346361370f565b5b8360020a91508482111561347b5761347a61370f565b5b506134e0565b5060208310610133831016604e8410600b84101617156134b65782820a9050838111156134b1576134b061370f565b5b6134e0565b6134c38484846001613376565b925090508184048111156134da576134d961370f565b5b81810290505b9392505050565b60006134f2826135fc565b91506134fd836135fc565b9250817fffffffffffffffffffffffffffffffffffffffffffffffffffffffffffffffff04831182151516156135365761353561370f565b5b828202905092915050565b600061354c826135fc565b9150613557836135fc565b92508282101561356a5761356961370f565b5b828203905092915050565b6000613580826135dc565b9050919050565b60008115159050919050565b6000819050919050565b60007fffffffff0000000000000000000000000000000000000000000000000000000082169050919050565b60008190506135d782613825565b919050565b600073ffffffffffffffffffffffffffffffffffffffff82169050919050565b6000819050919050565b600061361182613618565b9050919050565b6000613623826135dc565b9050919050565b6000613635826135c9565b9050919050565b82818337600083830152505050565b60005b8381101561366957808201518184015260208101905061364e565b83811115613678576000848401525b50505050565b6000600282049050600182168061369657607f821691505b602082108114156136aa576136a961379c565b5b50919050565b60006136bb826136c2565b9050919050565b60006136cd8261380b565b9050919050565b6000819050919050565b60006136e9826135fc565b91506136f4836135fc565b9250826137045761370361373e565b5b828206905092915050565b7f4e487b7100000000000000000000000000000000000000000000000000000000600052601160045260246000fd5b7f4e487b7100000000000000000000000000000000000000000000000000000000600052601260045260246000fd5b7f4e487b7100000000000000000000000000000000000000000000000000000000600052602160045260246000fd5b7f4e487b7100000000000000000000000000000000000000000000000000000000600052602260045260246000fd5b7f4e487b7100000000000000000000000000000000000000000000000000000000600052604160045260246000fd5b6000601f19601f8301169050919050565b60008160601b9050919050565b60008160011c9050919050565b600481106138365761383561376d565b5b50565b61384281613575565b811461384d57600080fd5b50565b61385981613587565b811461386457600080fd5b50565b61387081613593565b811461387b57600080fd5b50565b6004811061388b57600080fd5b50565b613897816135fc565b81146138a257600080fd5b5056fe68747470733a2f2f636f6e6e6563742d7068692e76657263656c2e6170702f6170692f6c6f616e2f636c6f736568747470733a2f2f636f6e6e6563742d7068692e76657263656c2e6170702f6170692f6c6f616e2f7265636569766568747470733a2f2f636f6e6e6563742d7068692e76657263656c2e6170702f6170692f6c6f616e2f617070726f7665a2646970667358221220855a0c3ba06548e29214cfd128b9455c8f4b8d54d482716a9aa64f6f8ec0639e64736f6c63430008000033",
  "linkReferences": {},
  "deployedLinkReferences": {}
}